:100000000C9435000C945D000C945D000C945D0024
:100010000C945D000C945D000C945D000C947302D4
:100020000C945D000C945D000C945D000C945D00DC
:100030000C945D000C945D000C945D000C945D00CC
:100040000C94D1010C945D000C9441020C941B02A1
:100050000C945D000C945D000C945D000C945D00AC
:100060000C945D000C945D001C0611241FBECFEFA4
:10007000D8E0DEBFCDBF24E0ACE6B3E001C01D9206
:10008000A933B207E1F713E0A0E0B1E0EEE2F3E15B
:1000900002C005900D92AC36B107D9F710E0C5E368
:1000A000D0E004C02197FE010E949906C433D10715
:1000B000C9F70E949C020C9495090C940000AF9221
:1000C000BF92CF92DF92EF92FF920F931F93CF9345
:1000D000DF936C017B018B01040F151FEB015E01A7
:1000E000AE18BF08C017D10759F06991D601ED913C
:1000F000FC910190F081E02DC6010995892B79F7DB
:10010000C501DF91CF911F910F91FF90EF90DF908C
:10011000CF90BF90AF900895FC01538D448D252F53
:1001200030E0842F90E0821B930B541710F0CF9691
:10013000089501970895FC01918D828D981761F0C3
:10014000A28DAE0FBF2FB11D5D968C91928D9F5FDA
:100150009F73928F90E008958FEF9FEF0895FC01B9
:10016000918D828D981731F0828DE80FF11D858D6C
:1001700090E008958FEF9FEF0895FC01918D228DFF
:10018000892F90E0805C9F4F821B91098F73992784
:1001900008958CE793E00E94BD0021E0892B09F4CB
:1001A00020E0822F089580E090E0892B29F00E94C2
:1001B000C90081110C9400000895FC01A48DA80FC2
:1001C000B92FB11DA35ABF4F2C91848D90E0019699
:1001D0008F739927848FA689B7892C93A089B189B9
:1001E0008C91837080648C93938D848D981306C05A
:1001F0000288F389E02D80818F7D80830895EF92BE
:10020000FF920F931F93CF93DF93EC0181E0888FD0
:100210009B8D8C8D98131AC0E889F989808185FFA0
:1002200015C09FB7F894EE89FF896083E889F98942
:1002300080818370806480839FBF81E090E0DF9144
:10024000CF911F910F91FF90EF900895F62E0B8D97
:1002500010E00F5F1F4F0F731127E02E8C8D8E1152
:100260000CC00FB607FCFACFE889F989808185FFB9
:10027000F5CFCE010E94DD00F1CFEB8DEC0FFD2F0D
:10028000F11DE35AFF4FF0829FB7F8940B8FEA8974
:10029000FB8980818062CFCFCF93DF93EC01888D83
:1002A0008823B9F0AA89BB89E889F9898C9185FDF1
:1002B00003C0808186FD0DC00FB607FCF7CF8C917F
:1002C00085FFF2CF808185FFEDCFCE010E94DD005A
:1002D000E9CFDF91CF910895CF93C82F8A3029F4C9
:1002E0006DE08CE793E00E94FF006C2F8CE793E0B9
:1002F0000E94FF0090E080E0CF910895CF9380931B
:100300001C04CFB7F894282F30E0A0E8BEE30E9489
:100310007F0624E630E040E050E00E945D06309326
:10032000890020938800CFBFCF91089580917A00F3
:10033000806480937A0080917A0086FDFCCF0895D6
:1003400090911904981731F1982F906490937C0044
:100350008093190488EC90E025E32A95F1F70000DA
:100360000197D1F70E9496018091780090917900D1
:100370000E94960180917800909179000E949601E8
:1003800080917800909179000E9496018091780088
:10039000909179000E949601809178009091790067
:1003A00008951F920F920FB60F9211242F933F932F
:1003B0008F939F93AF93BF9380912F0490913004BC
:1003C000A0913104B091320430912E0423E0230F28
:1003D0002D3758F50196A11DB11D20932E04809351
:1003E0002F0490933004A0933104B0933204809191
:1003F0002A0490912B04A0912C04B0912D04019615
:10040000A11DB11D80932A0490932B04A0932C046A
:10041000B0932D04BF91AF919F918F913F912F91F8
:100420000F900FBE0F901F90189526E8230F02968D
:10043000A11DB11DD2CF1F920F920FB60F921124A2
:100440002F933F934F935F936F937F938F939F93DC
:10045000AF93BF93EF93FF938CE793E00E94DD008F
:10046000FF91EF91BF91AF919F918F917F916F918C
:100470005F914F913F912F910F900FBE0F901F9062
:1004800018951F920F920FB60F9211242F938F93EE
:100490009F93EF93FF93E0918C03F0918D03808104
:1004A000E0919203F091930382FD1BC090818091B3
:1004B00095038F5F8F7320919603821741F0E0912F
:1004C0009503F0E0E458FC4F958F80939503FF91DE
:1004D000EF919F918F912F910F900FBE0F901F90D2
:1004E00018958081F4CF1F920F920FB60F921124AE
:1004F0008F939F9380916C0390916D0301968A3046
:10050000910558F490936D0380936C039F918F91A4
:100510000F900FBE0F901F90189510926D031092C0
:100520006C0380911A04882319F081E080931B04E6
:1005300081E080931A04EACF789484B5826084BD08
:1005400084B5816084BD85B5826085BD85B58160D7
:1005500085BD80916E00816080936E001092810055
:100560008091810082608093810080918100816010
:1005700080938100809180008160809380008091D1
:10058000B10084608093B1008091B000816080935D
:10059000B00080917A00846080937A0080917A0024
:1005A000826080937A0080917A00816080937A00E3
:1005B00080917A00806880937A001092C100E09167
:1005C0008C03F0918D0392E09083E0918803F09189
:1005D00089031082E0918A03F0918B038FEC808372
:1005E00010929403E0919003F091910386E0808350
:1005F000E0918E03F0918F03808180618083E09190
:100600008E03F0918F03808188608083E0918E0358
:10061000F0918F03808180688083E0918E03F09158
:100620008F0380818F7D80832CE631E030937703C8
:1006300020937603109279031092780390937103BC
:1006400010927B0310927A038EE693E09093360427
:1006500080933504219A1092810082E88093800073
:100660008FE79EE3909387008093860010921D048D
:1006700080E00E947E0189E180938100109219043C
:1006800080E480937C0087E880937A0010927B005E
:1006900080917E00816080937E000E94960180910F
:1006A00078009091790088E191E00E94B5063FB70B
:1006B000F894C9E0F0E0E0E0C09357009491E3E0E3
:1006C000F0E0C09357002491E2E0F0E0C0935700BF
:1006D000C4913FBF1F92CF931F922F931F929F935E
:1006E0008AE491E09F938F930E949F0684E791E0B4
:1006F0009F938F930E949F062DB73EB7265F3F4F73
:100700000FB6F8943EBF0FBE2DBFC77088E991E0C9
:10071000C53081F038F48EE991E0C43059F084EAB4
:1007200091E008C082E991E0C63021F089E891E0CB
:10073000C730A9F70E94B5061F9288EC8F931F92CD
:100740008AE08F931F9287E08F9382E58F9388E0F2
:100750008F938DEA91E09F938F930E949F061F9243
:1007600081E08F931F9284E68F938EE38F9380E8CE
:100770008F9383E08F9388EE8F9388ED91E09F9322
:100780008F930E949F061F9284E18F938DE092E0E9
:100790009F938F930E949F0684E292E00E94B50689
:1007A0006DB77EB7685E7F4F0FB6F8947EBF0FBE01
:1007B0006DBFC0E1C12CD12C76018EE00E94A0015A
:1007C000C80ED91EE11CF11CC150B9F7D0921F040C
:1007D000C0921E0430E020E0C114D104E104F10411
:1007E00041F060E070E88EE091E0A70196010E9480
:1007F0005D06309321042093200410922704109268
:1008000026041092250410922404109223041092BE
:10081000220410922904109228041092B10082E060
:100820008093B00099EF9093B3001092B20087BB11
:100830008093700085E08093B100CDECD2E0412C34
:10084000E0E85E2EEEE06E2E77247394BB24B39422
:100850009FB7F89480911A0410921A049FBF8823BE
:1008600009F4C4C0809128049091290401969093C2
:1008700029048093280469E170E00E9449068C01F4
:10088000892B19F570E1A72EC12CD12C76018EE0B1
:100890000E94A001C80ED91EE11CF11CAA94A1104F
:1008A000F6CFD0921F04C0921E04C114D104E104FB
:1008B000F10439F0C301B201A70196010E945D065F
:1008C0008901109321040093200410E1C12CD12C44
:1008D000760180E00E94A001C80ED91EE11CF11C27
:1008E0001150B9F778E0C70ED11CE11CF11C94E05F
:1008F000F694E794D794C7949A95D1F7A0912004E1
:10090000B0912104A7019601442755270E948E0625
:100910009B01AC016AE056954795379527956A95F6
:10092000D1F744275527AAEDB5E10E948E0628EE9F
:1009300033E040E050E00E945D06A22E332E822F6D
:10094000932F00912604109127040115110509F435
:100950005AC00130110509F482C090901C048091A6
:10096000260490912704892B69F480911D04981620
:1009700049F0981628F48919863008F085E0890D29
:100980000E947E0180911C04981681F090911D04B4
:1009900089130CC01F928F9381EB92E09F938F93EA
:1009A0000E949F060F900F900F900F90809026044A
:1009B000909027040815190509F089C08091280432
:1009C0009091290469E170E00E944906892B09F49D
:1009D000C4C09FB7F89480911B0410921B049FBF62
:1009E000882321F084E493E00E94B50660E070E083
:1009F000672B09F42DCF0E94C900882309F426CF64
:100A00000E94000023CF8830924568F4B0922504FC
:100A1000109224041092230461E070E07093270484
:100A2000609326049ACF80912204811114C0BF9252
:100A300080E98F931F9284E68F9385E592E09F93E0
:100A40008F930E949F06B09222040F900F900F90F8
:100A50000F900F900F9084E680931D047ECF20911D
:100A600024042F5F209324048830924528F4809139
:100A700023048F5F809323042A3008F46ECF809183
:100A800023048730E8F0B0921D0481E00E947E01CB
:100A900080912504882369F02FB7F894809188000D
:100AA000909189002FBF803A910519F462E070E0BF
:100AB000B5CF8FE792E00E94B50684E680931D04CF
:100AC00010922504109227041092260446CF73E05A
:100AD0008716910408F44EC084E593E09F938F93AA
:100AE00080911C041F928F933F92AF9280912104BA
:100AF0008F93809120048F9380911F048F93809116
:100B00001E048F93DF92CF92DF93CF930E949F06B4
:100B10006DB77EB7625F7F4F0FB6F8947EBF0FBE92
:100B20006DBF56C064E573E07F936F931F928F9300
:100B30003F92AF929F932F933F934F93DF92CF9229
:100B4000DF93CF930E949F068DB79EB70E960FB688
:100B5000F8949EBF0FBE8DBF3CCF40911E043091D4
:100B60001F04209120049091210480911C040330E3
:100B70001105C0F6F401EE0FFF1FEE5EFE4F8181FE
:100B80008F9380818F9380911C041F928F933F924B
:100B9000AF92809121048F93809120048F93809154
:100BA0001F048F9380911E048F93DF92CF92DF9367
:100BB000CF930E949F066DB77EB7625F7F4F0FB6DF
:100BC000F8947EBF0FBE6DBF0815190509F401CF5B
:100BD0008091260490912704019771F482E58F9308
:100BE00088E08F938DEE92E09F938F930E949F06F3
:100BF0000F900F900F900F908091260490912704F2
:100C0000029709F0E6CE1F92BF921F928AE08F935F
:100C1000809123041F928F936AE073E07F936F9318
:100C20000E949F062DB73EB7285F3F4F0FB6F8943E
:100C30003EBF0FBE2DBFCDCEECE7F3E01382128294
:100C400088EE93E0A0E0B0E084839583A683B78329
:100C500084E091E09183808385EC90E095878487A0
:100C600084EC90E09787868780EC90E0918B808B76
:100C700081EC90E0938B828B82EC90E0958B848B5F
:100C800086EC90E0978B868B118E128E138E148ECD
:100C90000895AA1BBB1B51E107C0AA1FBB1FA617C3
:100CA000B70710F0A61BB70B881F991F5A95A9F715
:100CB00080959095BC01CD010895A1E21A2EAA1B42
:100CC000BB1BFD010DC0AA1FBB1FEE1FFF1FA217FC
:100CD000B307E407F50720F0A21BB30BE40BF50BF9
:100CE000661F771F881F991F1A9469F76095709582
:100CF000809590959B01AC01BD01CF010895A29F05
:100D0000B001B39FC001A39F700D811D1124911DDF
:100D1000B29F700D811D1124911D08950E947F06C0
:100D2000A59F900DB49F900DA49F800D911D11243F
:100D30000895EE0FFF1F0590F491E02D0994B0E0A7
:100D4000A0E0E5EAF6E00C946E09AE014B5F5F4F60
:100D5000FA0161917191AF0180913504909136044F
:100D60000E94E006E2E00C948A090F931F93CF9350
:100D7000DF93E0913504F09136042381EC0110E01B
:100D800000E021FD08C00FEF1FEF14C00995892B6B
:100D900011F00FEF1FEF89916091350470913604C7
:100DA000DB011896ED91FC918111F0CF8AE0099555
:100DB000892B49F7C801DF91CF911F910F910895B9
:100DC000ABE0B0E0E6EEF6E00C945E097C013B019E
:100DD0008A01FC0117821682838181FFC8C1CE017E
:100DE00001965C01F7019381F30193FD859193FFD7
:100DF00081913F01882309F453C1853239F493FD71
:100E0000859193FF81913F01853229F4B70190E0EC
:100E10000E94D008E7CF912C212C312CFFE1F31553
:100E200038F08B3211F190F4803209F1833229F1DC
:100E300037FC3CC020ED280F2A3050F536FE20C08C
:100E40008AE0989E200D1124922E06C08D3291F0DA
:100E5000803371F7689430F8F30193FD859193FF27
:100E600081913F018111DACF21C0689431F86894F3
:100E700032F8F2CF689433F8EFCF689434F8ECCFBF
:100E8000EAE02E9E200D1124222E689435F8E4CF3E
:100E90008E3229F436FC04C1689436F8DDCF8C36E6
:100EA00019F4689437F8D8CF8836B1F2982F9F7D1F
:100EB00095549330E0F08336A1F18337C1F1833547
:100EC00009F063C02801F2E04F0E511CF801C08008
:100ED000D180692D70E036FC02C06FEF7FEFC60154
:100EE0000E94BA084C01689437F882010AC00C5F6E
:100EF0001F4FFFE3F98388248394912C6501E894C4
:100F000037F833FE2DC0522C8114910471F5552011
:100F100009F468CFB70180E290E00E94D0085A94AB
:100F2000F6CFF801808189830E5F1F4FE4CF28013F
:100F3000F2E04F0E511CF801C080D180692D70E0A5
:100F400036FC02C06FEF7FEFC6010E94C5084C015E
:100F50008201D5CFB70180E290E00E94D0082A94A8
:100F60002814190409F0B0F7CECFF60137FC8591AB
:100F700037FE81916F01B70190E00E94D0085110B7
:100F80005A94F1E08F1A9108BFCF843619F0893650
:100F900009F077C0F80137FE6BC0608171818281F2
:100FA00093810C5F1F4FF32DFF763F2E97FF09C0F3
:100FB00090958095709561957F4F8F4F9F4F689466
:100FC00037F82AE030E0A5010E940009C82ECA18AF
:100FD0008C2C432C36FE0CC0E89440F8C91440F425
:100FE00034FE05C032FC03C0F32DFE7E4F2E892C4B
:100FF00044FE95C0FE01EC0DF11D8081803309F0A7
:1010000087C0242D297E422E842D8870582E43FCC3
:1010100095C040FE8FC09C2C821418F42C0C922C8E
:10102000981844FE91C0B70180E390E00E94D00878
:1010300042FE09C088E790E041FE02C088E590E0EA
:10104000B7010E94D008C91408F48AC0CA94D12CF0
:101050009FEFC91AD90ACA0CDB1CF60182916F01F5
:10106000B70190E00E94D008AC14BD04B1F74FCF97
:1010700060817181072E000C880B990B0E5F1F4F4A
:1010800092CFD32CE894D4F82AE030E0853739F1B8
:10109000232D297FD22E8F3601F148F48835A9F00F
:1010A000F701868197812B96E2E10C947A098037CB
:1010B00049F08837A9F7D4FE02C06894D2F820E13D
:1010C00030E00DC06894D4F8F6CF34FE03C0822F10
:1010D0008660D82E20E132E002C028E030E0F8013E
:1010E000D7FE0FC060817181828193810C5F1F4F99
:1010F000A5010E940009C82ECA183D2CE89437F8B3
:1011000067CF6081718190E080E00E5F1F4FF0CF6C
:1011100042FC02C0839478CF8394839475CF842D4E
:10112000867809F471CFF6CFB70180E290E00E9493
:10113000D00883948214C0F3512C73CF522C5818CA
:10114000821408F46ECFF8CF842D867809F47BCF13
:101150008BE241FE80E247FC8DE2B70190E071CF67
:10116000B70180E390E00E94D0089A946CCF8FEF93
:101170009FEF99CFFC010590615070400110D8F7A6
:10118000809590958E0F9F1F0895FC0161507040CF
:1011900001900110D8F7809590958E0F9F1F0895AC
:1011A0000F931F93CF93DF93182F092FEB018B81A0
:1011B00081FD09C01FEF0FEF812F902FDF91CF919D
:1011C0001F910F91089582FF14C02E813F818C8161
:1011D0009D81281739073CF4E881F981CF010196F8
:1011E0009983888310838E819F8101969F838E834C
:1011F000E3CFE885F985812F0995892BA1F3DACF13
:10120000FA01AA27283051F1203181F1E8946F9337
:101210006E7F6E5F7F4F8F4F9F4FAF4FB1E03ED0DD
:10122000B4E03CD0670F781F891F9A1FA11D680F7B
:10123000791F8A1F911DA11D6A0F711D811D911DAE
:10124000A11D20D009F468943F912AE0269F112423
:101250003019305D3193DEF6CF010895462F477087
:10126000405D4193B3E00FD0C9F7F6CF462F4F70E2
:10127000405D4A3318F0495D31FD4052419302D040
:10128000A9F7EACFB4E0A6959795879577956795E6
:10129000BA95C9F700976105710508959B01AC01E6
:1012A0000A2E06945795479537952795BA95C9F70D
:1012B000620F731F841F951FA01D08952F923F92E8
:1012C0004F925F926F927F928F929F92AF92BF9256
:1012D000CF92DF92EF92FF920F931F93CF93DF9302
:1012E000CDB7DEB7CA1BDB0B0FB6F894DEBF0FBE5F
:1012F000CDBF09942A88398848885F846E847D84AC
:101300008C849B84AA84B984C884DF80EE80FD80AD
:101310000C811B81AA81B981CE0FD11D0FB6F89423
:0E132000DEBF0FBECDBFED010895F894FFCFE4
:10132E0000000000FF005F008C004C01BD009B0020
:10133E00AF0056035D0364030A54544E5420737475
:10134E006167652033202D207468726573686F6C39
:10135E006420646574656374696F6E20616E6420C9
:10136E0050574D20666C6F6F720066757365733AD9
:10137E00206C6F773D307825303258206869676869
:10138E003D307825303258206578743D30782530E0
:10139E0032580A0062726F776E2D6F757420726507
:1013AE007365742061743A200044495341424C45A0
:1013BE004400312E38205600322E37205600342E5F
:1013CE0033205600726573657276656400746872B8
:1013DE006573686F6C64202575206D562C20766FB2
:1013EE007465202575206F66202575206F766572D1
:1013FE00202575206D730A0070776D2070696E2040
:10140E00393A20257520487A2C202575207374656D
:10141E0070732C206E6F726D616C20257525252CD6
:10142E0020666C6F6F7220257525250A0073616D1D
:10143E00706C696E67206576657279202575206DF2
:10144E00730A0A002072617720202062675F73752D
:10145E006D202020617663635F6D7620202076629A
:10146E0061745F6D7620202064757479202020735E
:10147E00746174650020202D3E206865616C74686F
:10148E00792C2072616D70696E6720746F202575DE
:10149E002525206F766572202575206D730A002034
:1014AE00202A2A2050574D20444944204E4F542084
:1014BE00524541434820464C4F4F52202D206C61DF
:1014CE00746368206E6F742061726D6564202A2AC1
:1014DE000020202D3E2072616D7020636F6D706C48
:1014EE0065746520617420257525250A00253475DF
:1014FE00202025367520202538752020253875208A
:10150E0020253475252520202025730A0020202D26
:10151E003E2062656C6F77202575206D562C2076E7
:10152E006572696679696E670A0020202A2A204C46
:10153E004154434845443A202575206F6620257551
:10154E002073616D706C6573206C6F772E20505711
:10155E004D2068656C6420617420257525252E202C
:10156E002A2A0A0020202A2A204F56455252554E2A
:10157E00202A2A003F004E4F524D414C00564552F4
:0C158E00494659004C4154434845440074
:00000001FF
