:100000000C9435000C945D000C945D000C945D0024
:100010000C945D000C945D000C945D000C945D00EC
:100020000C945D000C945D000C945D000C945D00DC
:100030000C945D000C945D000C945D000C945D00CC
:100040000C94A3010C945D000C9413020C94ED012C
:100050000C945D000C945D000C945D000C945D00AC
:100060000C945D000C945D00320311241FBECFEF91
:10007000D8E0DEBFCDBF21E0ACE2B1E001C01D920F
:10008000A63EB207E1F711E0A0E0B1E0EAEBFCE048
:1000900002C005900D92AC32B107D9F710E0C5E36C
:1000A000D0E004C02197FE010E945F03C433D10752
:1000B000C9F70E9445020C945B060C9400003FB700
:1000C000F8948091DC019091DD01A091DE01B09166
:1000D000DF0126B5A89B05C02F3F19F00196A11D91
:1000E000B11D3FBFBA2FA92F982F8827BC01CD0182
:1000F000620F711D811D911D42E0660F771F881FE1
:10010000991F4A95D1F70895AF92BF92CF92DF928F
:10011000EF92FF920F931F93CF93DF936C017B01BC
:100120008B01040F151FEB015E01AE18BF08C0174D
:10013000D10759F06991D601ED91FC910190F081C0
:10014000E02DC6010995892B79F7C501DF91CF9183
:100150001F910F91FF90EF90DF90CF90BF90AF90E5
:100160000895FC01538D448D252F30E0842F90E0BD
:10017000821B930B541710F0CF96089501970895A2
:10018000FC01918D828D981761F0A28DAE0FBF2F6B
:10019000B11D5D968C91928D9F5F9F73928F90E0C1
:1001A00008958FEF9FEF0895FC01918D828D981730
:1001B00031F0828DE80FF11D858D90E008958FEF6D
:1001C0009FEF0895FC01918D228D892F90E0805C36
:1001D0009F4F821B91098F73992708958AE391E0BD
:1001E0000E94E20021E0892B09F420E0822F08958B
:1001F00080E090E0892B29F00E94EE0081110C94A0
:1002000000000895FC01A48DA80FB92FB11DA35AB9
:10021000BF4F2C91848D90E001968F739927848F26
:10022000A689B7892C93A089B1898C918370806449
:100230008C93938D848D981306C00288F389E02DEA
:1002400080818F7D80830895EF92FF920F931F939B
:10025000CF93DF93EC0181E0888F9B8D8C8D981379
:100260001AC0E889F989808185FF15C09FB7F89485
:10027000EE89FF896083E889F989808183708064D1
:1002800080839FBF81E090E0DF91CF911F910F911C
:10029000FF90EF900895F62E0B8D10E00F5F1F4F2B
:1002A0000F731127E02E8C8D8E110CC00FB607FC3A
:1002B000FACFE889F989808185FFF5CFCE010E94C8
:1002C0000201F1CFEB8DEC0FFD2FF11DE35AFF4F33
:1002D000F0829FB7F8940B8FEA89FB898081806256
:1002E000CFCFCF93DF93EC01888D8823B9F0AA8913
:1002F000BB89E889F9898C9185FD03C0808186FDE1
:100300000DC00FB607FCF7CF8C9185FFF2CF80812F
:1003100085FFEDCFCE010E940201E9CFDF91CF91A1
:100320000895CF93C82F8A3029F46DE08AE391E0D5
:100330000E9424016C2F8AE391E00E94240190E046
:1003400080E0CF9108951F920F920FB60F92112463
:100350002F933F938F939F93AF93BF938091D80137
:100360009091D901A091DA01B091DB013091D701D0
:1003700023E0230F2D3758F50196A11DB11D2093C1
:10038000D7018093D8019093D901A093DA01B0935B
:10039000DB018091DC019091DD01A091DE01B09143
:1003A000DF010196A11DB11D8093DC019093DD0159
:1003B000A093DE01B093DF01BF91AF919F918F9128
:1003C0003F912F910F900FBE0F901F90189526E828
:1003D000230F0296A11DB11DD2CF1F920F920FB60F
:1003E0000F9211242F933F934F935F936F937F93BB
:1003F0008F939F93AF93BF93EF93FF938AE391E023
:100400000E940201FF91EF91BF91AF919F918F9157
:100410007F916F915F914F913F912F910F900FBE00
:100420000F901F9018951F920F920FB60F921124E4
:100430002F938F939F93EF93FF93E0914A01F09155
:100440004B018081E0915001F091510182FD1BC070
:100450009081809153018F5F8F7320915401821797
:1004600041F0E0915301F0E0E65CFE4F958F809300
:100470005301FF91EF919F918F912F910F900FBE9C
:100480000F901F9018958081F4CF789484B5826086
:1004900084BD84B5816084BD85B5826085BD85B528
:1004A000816085BD80916E00816080936E001092A6
:1004B0008100809181008260809381008091810021
:1004C00081608093810080918000816080938000B2
:1004D0008091B10084608093B1008091B000816010
:1004E0008093B00080917A00846080937A0080913C
:1004F0007A00826080937A0080917A008160809394
:100500007A0080917A00806880937A001092C1000E
:10051000E0914A01F0914B0192E09083E091460115
:10052000F09147011082E0914801F09149018FEC70
:10053000808310925201E0914E01F0914F0186E0CC
:100540008083E0914C01F0914D0180818061808336
:10055000E0914C01F0914D01808188608083E091B1
:100560004C01F0914D01808180688083E0914C01C5
:10057000F0914D0180818F7D808321E931E03093BE
:100580003501209334011092370110923601909377
:100590002F0110923901109238018CE291E0909372
:1005A000E3018093E20182E191E00E947B031F92CC
:1005B00085E08F938EE191E09F938F930E94650376
:1005C0000F900F900F900F90C2E2D1E000E010E08A
:1005D0002FB7F8948091D8019091D901A091DA01B8
:1005E000B091DB012FBFBF93AF939F938F93DF93A6
:1005F000CF930E9465030E945F004B015C010F9046
:100600000F900F900F900F900F9088EEC82E83E000
:10061000D82EE12CF12C0E945F00681979098A0913
:100620009B09683E734081059105A8F321E0C21A39
:10063000D108E108F10888EE880E83E0981EA11C1D
:10064000B11CC114D104E104F10429F7011511050D
:1006500009F4BECF0E94EE00882309F4B9CF0E94AE
:100660000000B6CFEAE3F1E01382128288EE93E055
:10067000A0E0B0E084839583A683B78384E091E013
:100680009183808385EC90E09587848784EC90E06B
:100690009787868780EC90E0918B808B81EC90E04F
:1006A000938B828B82EC90E0958B848B86EC90E030
:1006B000978B868B118E128E138E148E0895EE0FEB
:1006C000FF1F0590F491E02D0994B0E0A0E0EBE667
:1006D000F3E00C943406AE014B5F5F4FFA01619179
:1006E0007191AF018091E2019091E3010E94A60314
:1006F000E2E00C9450060F931F93CF93DF93E091A9
:10070000E201F091E3012381EC0110E000E021FD22
:1007100008C00FEF1FEF14C00995892B11F00FEFE0
:100720001FEF89916091E2017091E301DB0118965E
:10073000ED91FC918111F0CF8AE00995892B49F761
:10074000C801DF91CF911F910F910895ABE0B0E008
:10075000ECEAF3E00C9424067C013B018A01FC01E5
:1007600017821682838181FFC8C1CE0101965C0188
:10077000F7019381F30193FD859193FF81913F01EF
:10078000882309F453C1853239F493FD859193FF91
:1007900081913F01853229F4B70190E00E949605CE
:1007A000E7CF912C212C312CFFE1F31538F08B325F
:1007B00011F190F4803209F1833229F137FC3CC009
:1007C00020ED280F2A3050F536FE20C08AE0989E92
:1007D000200D1124922E06C08D3291F0803371F7D6
:1007E000689430F8F30193FD859193FF81913F0167
:1007F0008111DACF21C0689431F8689432F8F2CFD1
:10080000689433F8EFCF689434F8ECCFEAE02E9E8A
:10081000200D1124222E689435F8E4CF8E3229F46D
:1008200036FC04C1689436F8DDCF8C3619F4689430
:1008300037F8D8CF8836B1F2982F9F7D95549330F2
:10084000E0F08336A1F18337C1F1833509F063C04D
:100850002801F2E04F0E511CF801C080D180692DB3
:1008600070E036FC02C06FEF7FEFC6010E9480058A
:100870004C01689437F882010AC00C5F1F4FFFE3F8
:10088000F98388248394912C6501E89437F833FE2A
:100890002DC0522C8114910471F5552009F468CFB4
:1008A000B70180E290E00E9496055A94F6CFF801D5
:1008B000808189830E5F1F4FE4CF2801F2E04F0E45
:1008C000511CF801C080D180692D70E036FC02C057
:1008D0006FEF7FEFC6010E948B054C018201D5CFDF
:1008E000B70180E290E00E9496052A94281419042A
:1008F00009F0B0F7CECFF60137FC859137FE819134
:100900006F01B70190E00E94960551105A94F1E0F2
:100910008F1A9108BFCF843619F0893609F077C055
:10092000F80137FE6BC060817181828193810C5F19
:100930001F4FF32DFF763F2E97FF09C090958095AE
:10094000709561957F4F8F4F9F4F689437F82AE0DD
:1009500030E0A5010E94C605C82ECA188C2C432C75
:1009600036FE0CC0E89440F8C91440F434FE05C0CB
:1009700032FC03C0F32DFE7E4F2E892C44FE95C021
:10098000FE01EC0DF11D8081803309F087C0242D1C
:10099000297E422E842D8870582E43FC95C040FE3F
:1009A0008FC09C2C821418F42C0C922C981844FEA6
:1009B00091C0B70180E390E00E94960542FE09C015
:1009C00088E790E041FE02C088E590E0B7010E9410
:1009D0009605C91408F48AC0CA94D12C9FEFC91A8D
:1009E000D90ACA0CDB1CF60182916F01B70190E0B5
:1009F0000E949605AC14BD04B1F74FCF60817181A0
:100A0000072E000C880B990B0E5F1F4F92CFD32C33
:100A1000E894D4F82AE030E0853739F1232D297F96
:100A2000D22E8F3601F148F48835A9F0F70186817E
:100A300097812B96E2E10C944006803749F0883785
:100A4000A9F7D4FE02C06894D2F820E130E00DC0CE
:100A50006894D4F8F6CF34FE03C0822F8660D82E77
:100A600020E132E002C028E030E0F801D7FE0FC0FC
:100A700060817181828193810C5F1F4FA5010E946B
:100A8000C605C82ECA183D2CE89437F867CF608198
:100A9000718190E080E00E5F1F4FF0CF42FC02C0FA
:100AA000839478CF8394839475CF842D867809F4CA
:100AB00071CFF6CFB70180E290E00E949605839453
:100AC0008214C0F3512C73CF522C5818821408F49E
:100AD0006ECFF8CF842D867809F47BCF8BE241FE70
:100AE00080E247FC8DE2B70190E071CFB70180E36F
:100AF00090E00E9496059A946CCF8FEF9FEF99CF6C
:100B0000FC010590615070400110D8F780959095D8
:100B10008E0F9F1F0895FC016150704001900110DD
:100B2000D8F7809590958E0F9F1F08950F931F9370
:100B3000CF93DF93182F092FEB018B8181FD09C023
:100B40001FEF0FEF812F902FDF91CF911F910F910A
:100B5000089582FF14C02E813F818C819D812817CA
:100B600039073CF4E881F981CF01019699838883A4
:100B700010838E819F8101969F838E83E3CFE885CA
:100B8000F985812F0995892BA1F3DACFFA01AA27DC
:100B9000283051F1203181F1E8946F936E7F6E5FC0
:100BA0007F4F8F4F9F4FAF4FB1E03ED0B4E03CD06E
:100BB000670F781F891F9A1FA11D680F791F8A1F51
:100BC000911DA11D6A0F711D811D911DA11D20D0B8
:100BD00009F468943F912AE0269F11243019305D72
:100BE0003193DEF6CF010895462F4770405D419363
:100BF000B3E00FD0C9F7F6CF462F4F70405D4A33B0
:100C000018F0495D31FD4052419302D0A9F7EACF77
:100C1000B4E0A6959795879577956795BA95C9F7A6
:100C200000976105710508959B01AC010A2E069499
:100C30005795479537952795BA95C9F7620F731F52
:100C4000841F951FA01D08952F923F924F925F928F
:100C50006F927F928F929F92AF92BF92CF92DF92CC
:100C6000EF92FF920F931F93CF93DF93CDB7DEB731
:100C7000CA1BDB0B0FB6F894DEBF0FBECDBF0994C5
:100C80002A88398848885F846E847D848C849B841C
:100C9000AA84B984C884DF80EE80FD800C811B812A
:100CA000AA81B981CE0FD11D0FB6F894DEBF0FBE59
:0A0CB000CDBFED010895F894FFCFC9
:100CBA000000000024018400B1007101E200C000BC
:100CCA00D40048656C6C6F20776F726C6400256481
:0C0CDA000A007469636B20256C750A0029
:00000001FF
