:100000000C9435000C945D000C945D000C945D0024
:100010000C945D000C945D000C945D000C947302D4
:100020000C945D000C945D000C945D000C945D00DC
:100030000C945D000C945D000C945D000C945D00CC
:100040000C94D1010C945D000C9441020C941B02A1
:100050000C945D000C945D000C945D000C945D00AC
:100060000C945D000C945D00E80511241FBECFEFD9
:10007000D8E0DEBFCDBF23E0A6E2B3E001C01D9211
:10008000A23FB207E1F713E0A0E0B1E0E6ECF2E155
:1000900002C005900D92A632B107D9F710E0C5E372
:1000A000D0E004C02197FE010E946506C433D10749
:1000B000C9F70E949C020C9461090C940000AF9255
:1000C000BF92CF92DF92EF92FF920F931F93CF9345
:1000D000DF936C017B018B01040F151FEB015E01A7
:1000E000AE18BF08C017D10759F06991D601ED913C
:1000F000FC910190F081E02DC6010995892B79F7DB
:10010000C501DF91CF911F910F91FF90EF90DF908C
:10011000CF90BF90AF900895FC01538D448D252F53
:1001200030E0842F90E0821B930B541710F0CF9691
:10013000089501970895FC01918D828D981761F0C3
:10014000A28DAE0FBF2FB11D5D968C91928D9F5FDA
:100150009F73928F90E008958FEF9FEF0895FC01B9
:10016000918D828D981731F0828DE80FF11D858D6C
:1001700090E008958FEF9FEF0895FC01918D228DFF
:10018000892F90E0805C9F4F821B91098F73992784
:10019000089586E393E00E94BD0021E0892B09F4D5
:1001A00020E0822F089580E090E0892B29F00E94C2
:1001B000C90081110C9400000895FC01A48DA80FC2
:1001C000B92FB11DA35ABF4F2C91848D90E0019699
:1001D0008F739927848FA689B7892C93A089B189B9
:1001E0008C91837080648C93938D848D981306C05A
:1001F0000288F389E02D80818F7D80830895EF92BE
:10020000FF920F931F93CF93DF93EC0181E0888FD0
:100210009B8D8C8D98131AC0E889F989808185FFA0
:1002200015C09FB7F894EE89FF896083E889F98942
:1002300080818370806480839FBF81E090E0DF9144
:10024000CF911F910F91FF90EF900895F62E0B8D97
:1002500010E00F5F1F4F0F731127E02E8C8D8E1152
:100260000CC00FB607FCFACFE889F989808185FFB9
:10027000F5CFCE010E94DD00F1CFEB8DEC0FFD2F0D
:10028000F11DE35AFF4FF0829FB7F8940B8FEA8974
:10029000FB8980818062CFCFCF93DF93EC01888D83
:1002A0008823B9F0AA89BB89E889F9898C9185FDF1
:1002B00003C0808186FD0DC00FB607FCF7CF8C917F
:1002C00085FFF2CF808185FFEDCFCE010E94DD005A
:1002D000E9CFDF91CF910895CF93C82F8A3029F4C9
:1002E0006DE086E393E00E94FF006C2F86E393E0CD
:1002F0000E94FF0090E080E0CF910895CF9380931B
:10030000D603CFB7F894282F30E0A0E8BEE30E94D0
:100310004B0624E630E040E050E00E94290630938E
:10032000890020938800CFBFCF91089580917A00F3
:10033000806480937A0080917A0086FDFCCF0895D6
:100340009091D303981731F1982F906490937C008B
:100350008093D30388EC90E025E32A95F1F7000021
:100360000197D1F70E9496018091780090917900D1
:100370000E94960180917800909179000E949601E8
:1003800080917800909179000E9496018091780088
:10039000909179000E949601809178009091790067
:1003A00008951F920F920FB60F9211242F933F932F
:1003B0008F939F93AF93BF938091E8039091E9034C
:1003C000A091EA03B091EB033091E70323E0230F00
:1003D0002D3758F50196A11DB11D2093E703809399
:1003E000E8039093E903A093EA03B093EB038091B1
:1003F000E3039091E403A091E503B091E603019635
:10040000A11DB11D8093E3039093E403A093E50342
:10041000B093E603BF91AF919F918F913F912F9140
:100420000F900FBE0F901F90189526E8230F02968D
:10043000A11DB11DD2CF1F920F920FB60F921124A2
:100440002F933F934F935F936F937F938F939F93DC
:10045000AF93BF93EF93FF9386E393E00E94DD0099
:10046000FF91EF91BF91AF919F918F917F916F918C
:100470005F914F913F912F910F900FBE0F901F9062
:1004800018951F920F920FB60F9211242F938F93EE
:100490009F93EF93FF93E0914603F0914703808190
:1004A000E0914C03F0914D0382FD1BC0908180913F
:1004B0004F038F5F8F7320915003821741F0E091BB
:1004C0004F03F0E0EA5CFC4F958F80934F03FF9160
:1004D000EF919F918F912F910F900FBE0F901F90D2
:1004E00018958081F4CF1F920F920FB60F921124AE
:1004F0008F939F93809126039091270301968A30D2
:10050000910558F490932703809326039F918F9130
:100510000F900FBE0F901F90189510922703109206
:1005200026038091D403882319F081E08093D503BA
:1005300081E08093D403EACF789484B5826084BD4F
:1005400084B5816084BD85B5826085BD85B58160D7
:1005500085BD80916E00816080936E001092810055
:100560008091810082608093810080918100816010
:1005700080938100809180008160809380008091D1
:10058000B10084608093B1008091B000816080935D
:10059000B00080917A00846080937A0080917A0024
:1005A000826080937A0080917A00816080937A00E3
:1005B00080917A00806880937A001092C100E09167
:1005C0004603F091470392E09083E0914203F0915B
:1005D00043031082E0914403F09145038FEC808344
:1005E00010924E03E0914A03F0914B0386E0808322
:1005F000E0914803F0914903808180618083E0911C
:100600004803F0914903808188608083E09148032A
:10061000F0914903808180688083E0914803F091E4
:10062000490380818F7D80832CE631E03093310354
:1006300020933003109233031092320390932B03D4
:10064000109235031092340388E293E09093EF0305
:100650008093EE03219A1092810082E880938000BB
:100660008FE79EE390938700809386001092D603D5
:10067000109289001092880089E180938100109285
:10068000D30380E480937C0087E880937A00109203
:100690007B0080917E00816080937E000E949601A5
:1006A000809178009091790088E191E00E94810624
:1006B0003FB7F894C9E0F0E0E0E0C09357009491B0
:1006C000E3E0F0E0C09357002491E2E0F0E0C09353
:1006D0005700C4913FBF1F92CF931F922F931F9239
:1006E0009F938AE491E09F938F930E946B0684E727
:1006F00091E09F938F930E946B062DB73EB7265FC4
:100700003F4F0FB6F8943EBF0FBE2DBFC77088E9AC
:1007100091E0C53081F038F48EE991E0C43059F0B1
:1007200084EA91E008C082E991E0C63021F089E8CE
:1007300091E0C730A9F70E9481061F9288EC8F9341
:100740001F928AE08F931F9287E08F9382E58F93A9
:1007500088E08F938DEA91E09F938F930E946B06C0
:100760001F9281E08F931F9284E68F938EE38F9385
:1007700080E88F9383E08F9388EE8F9388ED91E0EC
:100780009F938F930E946B061F9284E18F938DE05D
:1007900092E09F938F930E946B0684E292E00E9406
:1007A00081066DB77EB7685E7F4F0FB6F8947EBF47
:1007B0000FBE6DBFC0E1C12CD12C76018EE00E942E
:1007C000A001C80ED91EE11CF11CC150B9F7D0928E
:1007D000D803C092D70330E020E0C114D104E10473
:1007E000F10441F060E070E88EE091E0A70196012D
:1007F0000E9429063093DA032093D9031092E00374
:100800001092DF031092DE031092DD031092DC03DE
:100810001092DB031092E2031092E1031092B100F8
:1008200082E08093B00099EF9093B3001092B200F1
:1008300087BB8093700085E08093B100C7E8D2E069
:10084000412CF0E85F2EFEE06F2E772473949924FC
:100850009394E2E52E2E9FB7F8948091D4031092E2
:10086000D4039FBF882309F49AC08091E10390913B
:10087000E20301969093E2038093E10369E170E063
:100880000E9415068C01892B19F570E1B72EC12C39
:10089000D12C76018EE00E94A001C80ED91EE11C69
:1008A000F11CBA94B110F6CFD092D803C092D703FE
:1008B000C114D104E104F10439F0C301B201A7016C
:1008C00096010E94290689011093DA030093D90347
:1008D00010E1C12CD12C760180E00E94A001C80E4D
:1008E000D91EE11CF11C1150B9F778E0C70ED11CDC
:1008F000E11CF11C94E0F694E794D794C7949A9580
:10090000D1F7A091D903B091DA03A701960144274A
:1009100055270E945A069B01AC016AE056954795FF
:10092000379527956A95D1F744275527AAEDB5E164
:100930000E945A0628EE33E040E050E00E9429066B
:10094000822E332E822F932F0091DF031091E0032C
:100950000115110589F10130110509F44BC0A09072
:10096000DF03B090E0030A151B0509F07DC08091FC
:10097000E1039091E20369E170E00E941506892B82
:1009800009F4B8C09FB7F8948091D5031092D503AD
:100990009FBF882321F08EEF92E00E94810660E0E5
:1009A00070E0672B09F457CF0E94C900882309F42F
:1009B0004ECF0E9400004BCF8830924568F4909251
:1009C000DE031092DD031092DC0361E070E07093AF
:1009D000E0036093DF03C3CF8091DB03882321F022
:1009E0008091D603843619F084E60E947E019092AD
:1009F000DB03B5CF2091DD032F5F2093DD0388302B
:100A0000924528F48091DC038F5F8093DC032A30C9
:100A100008F4A5CF8091DC038730F8F081E00E94D4
:100A20007E018091DE03882389F02FB7F8948091AE
:100A30008800909189002FBF803A910539F482E0B7
:100A400090E09093E0038093DF0389CF85E592E007
:100A50000E94810684E60E947E011092DE031092BD
:100A6000E0031092DF037BCF73E0A716B10408F414
:100A70004EC08EE093E09F938F938091D6031F9298
:100A80008F933F928F928091DA038F938091D90355
:100A90008F938091D8038F938091D7038F93DF92A8
:100AA000CF92DF93CF930E946B066DB77EB7625FE4
:100AB0007F4F0FB6F8947EBF0FBE6DBF56C06EE07D
:100AC00073E07F936F931F928F933F928F923F9328
:100AD0004F939F932F93DF92CF92DF93CF930E94F8
:100AE0006B068DB79EB70E960FB6F8949EBF0FBEDD
:100AF0008DBF48CF4091D9033091DA032091D703BD
:100B00009091D8038091D60303301105C0F6F5010A
:100B1000EE0FFF1FEE5EFE4F81818F9380818F93DA
:100B20008091D6031F928F933F928F928091DA0328
:100B30008F938091D9038F938091D8038F93809165
:100B4000D7038F93DF92CF92DF93CF930E946B06F0
:100B50006DB77EB7625F7F4F0FB6F8947EBF0FBE52
:100B60006DBF0A151B0509F40DCF8091DF0390912D
:100B7000E003019769F42F9288E08F9387EA92E06F
:100B80009F938F930E946B060F900F900F900F9082
:100B90008091DF039091E003029709F0F3CE1F925A
:100BA0009F921F923AE03F938091DC031F928F93B4
:100BB00064EC72E07F936F930E946B062DB73EB793
:100BC000285F3F4F0FB6F8943EBF0FBE2DBFDACE61
:100BD000E6E3F3E01382128288EE93E0A0E0B0E057
:100BE00084839583A683B78384E091E09183808397
:100BF00085EC90E09587848784EC90E097878687E2
:100C000080EC90E0918B808B81EC90E0938B828BD9
:100C100082EC90E0958B848B86EC90E0978B868BB2
:100C2000118E128E138E148E0895AA1BBB1B51E1D8
:100C300007C0AA1FBB1FA617B70710F0A61BB70B4C
:100C4000881F991F5A95A9F780959095BC01CD01F1
:100C50000895A1E21A2EAA1BBB1BFD010DC0AA1FFD
:100C6000BB1FEE1FFF1FA217B307E407F50720F015
:100C7000A21BB30BE40BF50B661F771F881F991F90
:100C80001A9469F760957095809590959B01AC01D9
:100C9000BD01CF010895A29FB001B39FC001A39FE2
:100CA000700D811D1124911DB29F700D811D1124A5
:100CB000911D08950E944B06A59F900DB49F900D25
:100CC000A49F800D911D11240895EE0FFF1F059024
:100CD000F491E02D0994B0E0A0E0E1E7F6E00C9497
:100CE0003A09AE014B5F5F4FFA0161917191AF011B
:100CF0008091EE039091EF030E94AC06E2E00C9429
:100D000056090F931F93CF93DF93E091EE03F09179
:100D1000EF032381EC0110E000E021FD08C00FEF9C
:100D20001FEF14C00995892B11F00FEF1FEF899168
:100D30006091EE037091EF03DB011896ED91FC9149
:100D40008111F0CF8AE00995892B49F7C801DF911D
:100D5000CF911F910F910895ABE0B0E0E2EBF6E088
:100D60000C942A097C013B018A01FC01178216823E
:100D7000838181FFC8C1CE0101965C01F701938197
:100D8000F30193FD859193FF81913F01882309F43D
:100D900053C1853239F493FD859193FF81913F01D1
:100DA000853229F4B70190E00E949C08E7CF912C8E
:100DB000212C312CFFE1F31538F08B3211F190F436
:100DC000803209F1833229F137FC3CC020ED280F35
:100DD0002A3050F536FE20C08AE0989E200D11245E
:100DE000922E06C08D3291F0803371F7689430F8FE
:100DF000F30193FD859193FF81913F018111DACF3A
:100E000021C0689431F8689432F8F2CF689433F8CE
:100E1000EFCF689434F8ECCFEAE02E9E200D112439
:100E2000222E689435F8E4CF8E3229F436FC04C1C2
:100E3000689436F8DDCF8C3619F4689437F8D8CF3B
:100E40008836B1F2982F9F7D95549330E0F0833629
:100E5000A1F18337C1F1833509F063C02801F2E0C5
:100E60004F0E511CF801C080D180692D70E036FC16
:100E700002C06FEF7FEFC6010E9486084C016894A4
:100E800037F882010AC00C5F1F4FFFE3F983882403
:100E90008394912C6501E89437F833FE2DC0522CD1
:100EA0008114910471F5552009F468CFB70180E2EF
:100EB00090E00E949C085A94F6CFF80180818983C3
:100EC0000E5F1F4FE4CF2801F2E04F0E511CF801D6
:100ED000C080D180692D70E036FC02C06FEF7FEFDB
:100EE000C6010E9491084C018201D5CFB70180E272
:100EF00090E00E949C082A942814190409F0B0F785
:100F0000CECFF60137FC859137FE81916F01B70195
:100F100090E00E949C0851105A94F1E08F1A9108B9
:100F2000BFCF843619F0893609F077C0F80137FE53
:100F30006BC060817181828193810C5F1F4FF32DA3
:100F4000FF763F2E97FF09C090958095709561952B
:100F50007F4F8F4F9F4F689437F82AE030E0A5010C
:100F60000E94CC08C82ECA188C2C432C36FE0CC00C
:100F7000E89440F8C91440F434FE05C032FC03C0C4
:100F8000F32DFE7E4F2E892C44FE95C0FE01EC0D04
:100F9000F11D8081803309F087C0242D297E422EE7
:100FA000842D8870582E43FC95C040FE8FC09C2C29
:100FB000821418F42C0C922C981844FE91C0B7019E
:100FC00080E390E00E949C0842FE09C088E790E020
:100FD00041FE02C088E590E0B7010E949C08C91458
:100FE00008F48AC0CA94D12C9FEFC91AD90ACA0C36
:100FF000DB1CF60182916F01B70190E00E949C0812
:10100000AC14BD04B1F74FCF60817181072E000C85
:10101000880B990B0E5F1F4F92CFD32CE894D4F816
:101020002AE030E0853739F1232D297FD22E8F3603
:1010300001F148F48835A9F0F701868197812B9654
:10104000E2E10C944609803749F08837A9F7D4FECD
:1010500002C06894D2F820E130E00DC06894D4F862
:10106000F6CF34FE03C0822F8660D82E20E132E016
:1010700002C028E030E0F801D7FE0FC06081718126
:10108000828193810C5F1F4FA5010E94CC08C82E5E
:10109000CA183D2CE89437F867CF6081718190E0E1
:1010A00080E00E5F1F4FF0CF42FC02C0839478CFE8
:1010B0008394839475CF842D867809F471CFF6CF0D
:1010C000B70180E290E00E949C0883948214C0F3F0
:1010D000512C73CF522C5818821408F46ECFF8CFCD
:1010E000842D867809F47BCF8BE241FE80E247FCB9
:1010F0008DE2B70190E071CFB70180E390E00E94EC
:101100009C089A946CCF8FEF9FEF99CFFC010590CC
:10111000615070400110D8F7809590958E0F9F1FF9
:101120000895FC016150704001900110D8F780953E
:1011300090958E0F9F1F08950F931F93CF93DF936A
:10114000182F092FEB018B8181FD09C01FEF0FEFD5
:10115000812F902FDF91CF911F910F91089582FFE2
:1011600014C02E813F818C819D81281739073CF462
:10117000E881F981CF0101969983888310838E815C
:101180009F8101969F838E83E3CFE885F985812F28
:101190000995892BA1F3DACFFA01AA27283051F15A
:1011A000203181F1E8946F936E7F6E5F7F4F8F4F98
:1011B0009F4FAF4FB1E03ED0B4E03CD0670F781FF7
:1011C000891F9A1FA11D680F791F8A1F911DA11DDC
:1011D0006A0F711D811D911DA11D20D009F4689415
:1011E0003F912AE0269F11243019305D3193DEF6BD
:1011F000CF010895462F4770405D4193B3E00FD073
:10120000C9F7F6CF462F4F70405D4A3318F0495D5D
:1012100031FD4052419302D0A9F7EACFB4E0A69540
:101220009795879577956795BA95C9F70097610562
:10123000710508959B01AC010A2E069457954795B8
:1012400037952795BA95C9F7620F731F841F951FAD
:10125000A01D08952F923F924F925F926F927F92BE
:101260008F929F92AF92BF92CF92DF92EF92FF92B6
:101270000F931F93CF93DF93CDB7DEB7CA1BDB0B62
:101280000FB6F894DEBF0FBECDBF09942A88398807
:1012900048885F846E847D848C849B84AA84B9840E
:1012A000C884DF80EE80FD800C811B81AA81B9811A
:1012B000CE0FD11D0FB6F894DEBF0FBECDBFED012E
:0612C0000895F894FFCF31
:1012C60000000000FF005F008C004C01BD009B0089
:1012D600AF00100317031E030A54544E54207374B0
:1012E6006167652033202D207468726573686F6CA2
:1012F6006420646574656374696F6E20616E642032
:1013060050574D20666C6F6F720066757365733A41
:10131600206C6F773D3078253032582068696768D1
:101326003D307825303258206578743D3078253048
:1013360032580A0062726F776E2D6F75742072656F
:101346007365742061743A200044495341424C4508
:101356004400312E38205600322E37205600342EC7
:101366003320560072657365727665640074687220
:101376006573686F6C64202575206D562C20766F1A
:101386007465202575206F66202575206F76657239
:10139600202575206D730A0070776D2070696E20A8
:1013A600393A20257520487A2C20257520737465D6
:1013B60070732C206E6F726D616C20257525252C3F
:1013C60020666C6F6F7220257525250A0073616D86
:1013D600706C696E67206576657279202575206D5B
:1013E600730A0A002072617720202062675F737596
:1013F6006D202020617663635F6D76202020766203
:1014060061745F6D762020206475747920202073C6
:10141600746174650020202A2A2050574D204449C3
:1014260044204E4F5420524541434820464C4F4F8E
:1014360052202D206C61746368206E6F7420617277
:101446006D6564202A2A00253475202025367520EE
:10145600202538752020253875202025347525252A
:1014660020202025730A0020202D3E2062656C6F07
:1014760077202575206D562C207665726966796908
:101486006E670A0020202A2A204C415443484544CE
:101496003A202575206F662025752073616D706C66
:1014A6006573206C6F772E2050574D2068656C64ED
:1014B60020617420257525252E202A2A0A00202041
:1014C6002A2A204F56455252554E202A2A003F00BE
:1014D6004E4F524D414C00564552494659004C41DB
:0614E60054434845440098
:00000001FF
