:100000000C9435000C945D000C945D000C945D0024
:100010000C945D000C945D000C945D000C945B02EC
:100020000C945D000C945D000C945D000C945D00DC
:100030000C945D000C945D000C945D000C945D00CC
:100040000C94B9010C945D000C9429020C940302E9
:100050000C945D000C945D000C945D000C945D00AC
:100060000C945D000C945D00400411241FBECFEF82
:10007000D8E0DEBFCDBF23E0A6E4B2E001C01D9210
:10008000A930B207E1F712E0A0E0B1E0EEE4FFE052
:1000900002C005900D92A634B107D9F710E0C5E370
:1000A000D0E004C02197FE010E949A04C433D10716
:1000B000C9F70E9484020C94A5070C940000AF922B
:1000C000BF92CF92DF92EF92FF920F931F93CF9345
:1000D000DF936C017B018B01040F151FEB015E01A7
:1000E000AE18BF08C017D10759F06991D601ED913C
:1000F000FC910190F081E02DC6010995892B79F7DB
:10010000C501DF91CF911F910F91FF90EF90DF908C
:10011000CF90BF90AF900895FC01538D448D252F53
:1001200030E0842F90E0821B930B541710F0CF9691
:10013000089501970895FC01918D828D981761F0C3
:10014000A28DAE0FBF2FB11D5D968C91928D9F5FDA
:100150009F73928F90E008958FEF9FEF0895FC01B9
:10016000918D828D981731F0828DE80FF11D858D6C
:1001700090E008958FEF9FEF0895FC01918D228DFF
:10018000892F90E0805C9F4F821B91098F73992784
:10019000089586E592E00E94BD0021E0892B09F4D4
:1001A00020E0822F089580E090E0892B29F00E94C2
:1001B000C90081110C9400000895FC01A48DA80FC2
:1001C000B92FB11DA35ABF4F2C91848D90E0019699
:1001D0008F739927848FA689B7892C93A089B189B9
:1001E0008C91837080648C93938D848D981306C05A
:1001F0000288F389E02D80818F7D80830895EF92BE
:10020000FF920F931F93CF93DF93EC0181E0888FD0
:100210009B8D8C8D98131AC0E889F989808185FFA0
:1002200015C09FB7F894EE89FF896083E889F98942
:1002300080818370806480839FBF81E090E0DF9144
:10024000CF911F910F91FF90EF900895F62E0B8D97
:1002500010E00F5F1F4F0F731127E02E8C8D8E1152
:100260000CC00FB607FCFACFE889F989808185FFB9
:10027000F5CFCE010E94DD00F1CFEB8DEC0FFD2F0D
:10028000F11DE35AFF4FF0829FB7F8940B8FEA8974
:10029000FB8980818062CFCFCF93DF93EC01888D83
:1002A0008823B9F0AA89BB89E889F9898C9185FDF1
:1002B00003C0808186FD0DC00FB607FCF7CF8C917F
:1002C00085FFF2CF808185FFEDCFCE010E94DD005A
:1002D000E9CFDF91CF910895CF93C82F8A3029F4C9
:1002E0006DE086E592E00E94FF006C2F86E592E0CB
:1002F0000E94FF0090E080E0CF91089580917A0005
:10030000806480937A0080917A0086FDFCCF089506
:100310009091F302981731F1982F906490937C009C
:100320008093F30288EC90E025E32A95F1F7000032
:100330000197D1F70E947E01809178009091790019
:100340000E947E0180917800909179000E947E0148
:1003500080917800909179000E947E0180917800D0
:10036000909179000E947E018091780090917900AF
:1003700008951F920F920FB60F9211242F933F935F
:100380008F939F93AF93BF938091FF02909100034F
:10039000A0910103B09102033091FE0223E0230FEC
:1003A0002D3758F50196A11DB11D2093FE028093B3
:1003B000FF0290930003A0930103B0930203809186
:1003C000FA029091FB02A091FC02B091FD0201960D
:1003D000A11DB11D8093FA029093FB02A093FC0231
:1003E000B093FD02BF91AF919F918F913F912F915B
:1003F0000F900FBE0F901F90189526E8230F0296BE
:10040000A11DB11DD2CF1F920F920FB60F921124D2
:100410002F933F934F935F936F937F938F939F930C
:10042000AF93BF93EF93FF9386E592E00E94DD00C8
:10043000FF91EF91BF91AF919F918F917F916F91BC
:100440005F914F913F912F910F900FBE0F901F9092
:1004500018951F920F920FB60F9211242F938F931E
:100460009F93EF93FF93E0916602F0916702808182
:10047000E0916C02F0916D0282FD1BC09081809131
:100480006F028F5F8F7320917002821741F0E091AD
:100490006F02F0E0EA5AFD4F958F80936F02FF9153
:1004A000EF919F918F912F910F900FBE0F901F9002
:1004B00018958081F4CF1F920F920FB60F921124DE
:1004C0008F939F93809146029091470201968A3FB5
:1004D000910558F490934702809346029F918F9123
:1004E0000F900FBE0F901F90189510924702109218
:1004F00046028091F402882319F081E08093F5028E
:1005000081E08093F402EACF789484B5826084BD60
:1005100084B5816084BD85B5826085BD85B5816007
:1005200085BD80916E00816080936E001092810085
:100530008091810082608093810080918100816040
:100540008093810080918000816080938000809101
:10055000B10084608093B1008091B000816080938D
:10056000B00080917A00846080937A0080917A0054
:10057000826080937A0080917A00816080937A0013
:1005800080917A00806880937A001092C100E09197
:100590006602F0916702C2E0C083E0916202F091CE
:1005A00063021082E0916402F09165028FEC808317
:1005B00010926E02E0916A02F0916B0286E08083F5
:1005C000E0916802F0916902808180618083E0910E
:1005D0006802F0916902808188608083E0916802FE
:1005E000F0916902808180688083E0916802F091D7
:1005F000690280818F7D80838CE691E09093510227
:10060000809350021092530210925202C0934B02F8
:10061000109255021092540288E492E090930603DF
:10062000809305031092F30280E480937C0087E8B6
:1006300080937A0010927B0080917E00816080938D
:100640007E000E947E01809178009091790082E185
:1006500091E00E94C50484E08F938AE38F9385E143
:100660008F938AED8F938CE391E09F938F930E94F9
:10067000AF041F9280E18F931F928F9381E691E0E8
:100680009F938F930E94AF0481E08F9384EF8F93A9
:100690001F928AEF8F931F92CF9385E991E09F93EA
:1006A0008F930E94AF0488EC91E00E94C5041092E1
:1006B000B100C093B00089EF8093B3001092B200F4
:1006C000C7BBC093700085E08093B1002FB7F8944A
:1006D0008091FF0290910003A0910103B091020369
:1006E0002FBF8093F6029093F702A093F802B09385
:1006F000F9022DB73EB72C5E3F4F0FB6F8943EBFC0
:100700000FBE2DBF30E0232E30E0332E9FB7F8947C
:100710008091F4021092F4029FBF882309F4A4C0D0
:100720008FB7F8944091FF0250910003609101034C
:10073000709102038FBF8091F6029091F702EA0157
:10074000C81BD90B4093F6025093F7026093F8024E
:100750007093F90210E1812C912C54018EE00E94DB
:100760008801880E991EA11CB11C1150B9F710E028
:1007700000E081149104A104B10451F060E070E83C
:100780008EE091E0A50194010E946D04122F032FC9
:1007900020E1722EC12CD12C760180E00E948801CC
:1007A000C80ED91EE11CF11C7A947110F6CF38E006
:1007B000C30ED11CE11CF11C84E0F694E794D7949D
:1007C000C7948A95D1F7A701960144275527A12FF1
:1007D000B02F0E948F042B013C019AE0769467941D
:1007E000579447949A95D1F7DF93CF93A301920141
:1007F00044275527AAEDB5E10E948F0428EE33E087
:1008000040E050E00E946D043F932F935F924F921F
:100810000F931F939F928F92DF92CF922AEF31E036
:100820003F932F930E94AF049FB7F8948091F502F5
:100830001092F5029FBF2DB73EB7225F3F4F0FB614
:10084000F8943EBF0FBE2DBF882371F031E03F9377
:1008500084EF8F9328E132E03F932F930E94AF04FF
:100860000F900F900F900F902114310409F44ECF88
:100870000E94C900882309F449CF0E94000046CF96
:10088000E6E5F2E01382128288EE93E0A0E0B0E0A9
:1008900084839583A683B78384E091E091838083EA
:1008A00085EC90E09587848784EC90E09787868735
:1008B00080EC90E0918B808B81EC90E0938B828B2D
:1008C00082EC90E0958B848B86EC90E0978B868B06
:1008D000118E128E138E148E0895A1E21A2EAA1B69
:1008E000BB1BFD010DC0AA1FBB1FEE1FFF1FA217E0
:1008F000B307E407F50720F0A21BB30BE40BF50BDD
:10090000661F771F881F991F1A9469F76095709565
:10091000809590959B01AC01BD01CF0108950E9487
:10092000A004A59F900DB49F900DA49F800D911DD4
:1009300011240895EE0FFF1F0590F491E02D099406
:10094000A29FB001B39FC001A39F700D811D112410
:10095000911DB29F700D811D1124911D0895B0E06D
:10096000A0E0E5EBF4E00C947E07AE014B5F5F4F37
:10097000FA0161917191AF01809105039091060395
:100980000E94F004E2E00C949A070F931F93CF9318
:10099000DF93E0910503F09106032381EC0110E061
:1009A00000E021FD08C00FEF1FEF14C00995892B4F
:1009B00011F00FEF1FEF899160910503709106030D
:1009C000DB011896ED91FC918111F0CF8AE0099539
:1009D000892B49F7C801DF91CF911F910F9108959D
:1009E000ABE0B0E0E6EFF4E00C946E077C013B0175
:1009F0008A01FC0117821682838181FFC8C1CE0162
:100A000001965C01F7019381F30193FD859193FFBA
:100A100081913F01882309F453C1853239F493FD54
:100A2000859193FF81913F01853229F4B70190E0D0
:100A30000E94E006E7CF912C212C312CFFE1F31529
:100A400038F08B3211F190F4803209F1833229F1C0
:100A500037FC3CC020ED280F2A3050F536FE20C070
:100A60008AE0989E200D1124922E06C08D3291F0BE
:100A7000803371F7689430F8F30193FD859193FF0B
:100A800081913F018111DACF21C0689431F86894D7
:100A900032F8F2CF689433F8EFCF689434F8ECCFA3
:100AA000EAE02E9E200D1124222E689435F8E4CF22
:100AB0008E3229F436FC04C1689436F8DDCF8C36CA
:100AC00019F4689437F8D8CF8836B1F2982F9F7D03
:100AD00095549330E0F08336A1F18337C1F183352B
:100AE00009F063C02801F2E04F0E511CF801C080EC
:100AF000D180692D70E036FC02C06FEF7FEFC60138
:100B00000E94CA064C01689437F882010AC00C5F43
:100B10001F4FFFE3F98388248394912C6501E894A7
:100B200037F833FE2DC0522C8114910471F55520F5
:100B300009F468CFB70180E290E00E94E0065A9481
:100B4000F6CFF801808189830E5F1F4FE4CF280123
:100B5000F2E04F0E511CF801C080D180692D70E089
:100B600036FC02C06FEF7FEFC6010E94D5064C0134
:100B70008201D5CFB70180E290E00E94E0062A947E
:100B80002814190409F0B0F7CECFF60137FC85918F
:100B900037FE81916F01B70190E00E94E00651108D
:100BA0005A94F1E08F1A9108BFCF843619F0893634
:100BB00009F077C0F80137FE6BC0608171818281D6
:100BC00093810C5F1F4FF32DFF763F2E97FF09C0D7
:100BD00090958095709561957F4F8F4F9F4F68944A
:100BE00037F82AE030E0A5010E941007C82ECA1885
:100BF0008C2C432C36FE0CC0E89440F8C91440F409
:100C000034FE05C032FC03C0F32DFE7E4F2E892C2E
:100C100044FE95C0FE01EC0DF11D8081803309F08A
:100C200087C0242D297E422E842D8870582E43FCA7
:100C300095C040FE8FC09C2C821418F42C0C922C72
:100C4000981844FE91C0B70180E390E00E94E0064E
:100C500042FE09C088E790E041FE02C088E590E0CE
:100C6000B7010E94E006C91408F48AC0CA94D12CC6
:100C70009FEFC91AD90ACA0CDB1CF60182916F01D9
:100C8000B70190E00E94E006AC14BD04B1F74FCF6D
:100C900060817181072E000C880B990B0E5F1F4F2E
:100CA00092CFD32CE894D4F82AE030E0853739F19C
:100CB000232D297FD22E8F3601F148F48835A9F0F3
:100CC000F701868197812B96E2E10C948A078037A1
:100CD00049F08837A9F7D4FE02C06894D2F820E121
:100CE00030E00DC06894D4F8F6CF34FE03C0822FF4
:100CF0008660D82E20E132E002C028E030E0F80122
:100D0000D7FE0FC060817181828193810C5F1F4F7C
:100D1000A5010E941007C82ECA183D2CE89437F888
:100D200067CF6081718190E080E00E5F1F4FF0CF50
:100D300042FC02C0839478CF8394839475CF842D32
:100D4000867809F471CFF6CFB70180E290E00E9477
:100D5000E00683948214C0F3512C73CF522C5818A0
:100D6000821408F46ECFF8CF842D867809F47BCFF7
:100D70008BE241FE80E247FC8DE2B70190E071CF4B
:100D8000B70180E390E00E94E0069A946CCF8FEF69
:100D90009FEF99CFFC010590615070400110D8F78A
:100DA000809590958E0F9F1F0895FC0161507040B3
:100DB00001900110D8F7809590958E0F9F1F089590
:100DC0000F931F93CF93DF93182F092FEB018B8184
:100DD00081FD09C01FEF0FEF812F902FDF91CF9181
:100DE0001F910F91089582FF14C02E813F818C8145
:100DF0009D81281739073CF4E881F981CF010196DC
:100E00009983888310838E819F8101969F838E832F
:100E1000E3CFE885F985812F0995892BA1F3DACFF6
:100E2000FA01AA27283051F1203181F1E8946F931B
:100E30006E7F6E5F7F4F8F4F9F4FAF4FB1E03ED0C1
:100E4000B4E03CD0670F781F891F9A1FA11D680F5F
:100E5000791F8A1F911DA11D6A0F711D811D911D92
:100E6000A11D20D009F468943F912AE0269F112407
:100E70003019305D3193DEF6CF010895462F47706B
:100E8000405D4193B3E00FD0C9F7F6CF462F4F70C6
:100E9000405D4A3318F0495D31FD4052419302D024
:100EA000A9F7EACFB4E0A6959795879577956795CA
:100EB000BA95C9F700976105710508959B01AC01CA
:100EC0000A2E06945795479537952795BA95C9F7F1
:100ED000620F731F841F951FA01D08952F923F92CC
:100EE0004F925F926F927F928F929F92AF92BF923A
:100EF000CF92DF92EF92FF920F931F93CF93DF93E6
:100F0000CDB7DEB7CA1BDB0B0FB6F894DEBF0FBE42
:100F1000CDBF09942A88398848885F846E847D848F
:100F20008C849B84AA84B984C884DF80EE80FD8091
:100F30000C811B81AA81B981CE0FD11D0FB6F89407
:0E0F4000DEBF0FBECDBFED010895F894FFCFC8
:100F4E0000000000FF005F008C004C01BD009B0004
:100F5E00AF000A54544E54207374616765203220DA
:100F6E002D2074696D65722D64726976656E2056DA
:100F7E0042415420726561646F75740064697669CC
:100F8E00646572207831303030203D2025752C205C
:100F9E0062616E64676170203D202575206D560A72
:100FAE0000617665726167696E67202575207361D1
:100FBE006D706C65733B2062675F73756D202F20BB
:100FCE002575203D2062616E6467617020636F75C8
:100FDE006E74730A0074696D657232207469636B86
:100FEE00202575206D732C2073616D706C652065E6
:100FFE0076657279202575207469636B73203D20A8
:10100E002575206D730A0A002072617720202062F8
:10101E00675F73756D202020617663635F6D762048
:10102E00202061305F6D76202020766261745F6DC6
:10103E007620202064745F6D730025347520202582
:10104E003675202025387520202536752020253828
:10105E007520202537750A0020202A2A204F564554
:10106E005252554E3A206C6F6F7020746F6F6B201A
:10107E006C6F6E676572207468616E202575206DC9
:06108E0073202A2A0A006B
:00000001FF
