:100000000C9435000C9464000C9464000C9464000F
:100010000C9464000C9464000C9464000C947A02B8
:100020000C9464000C9464000C9464000C946400C0
:100030000C9464000C9464000C9464000C946400B0
:100040000C94D8010C9464000C9448020C94220285
:100050000C9464000C9464000C9464000C94640090
:100060000C9464000C9464001B0711241FBECFEF96
:10007000D8E0DEBFCDBF822D94B7909397058093D3
:10008000960514BE25E0A6ECB4E001C01D92A63989
:10009000B207E1F714E0A0E0B1E0EAE3F5E102C065
:1000A00005900D92A63CB107D9F710E0C5E3D0E06A
:1000B00004C02197FE010E949807C433D107C9F7F5
:1000C0000E94A3020C949B0A0C940000AF92BF9272
:1000D000CF92DF92EF92FF920F931F93CF93DF9314
:1000E0006C017B018B01040F151FEB015E01AE1843
:1000F000BF08C017D10759F06991D601ED91FC9165
:100100000190F081E02DC6010995892B79F7C50191
:10011000DF91CF911F910F91FF90EF90DF90CF90E3
:10012000BF90AF900895FC01538D448D252F30E092
:10013000842F90E0821B930B541710F0CF960895F4
:1001400001970895FC01918D828D981761F0A28D21
:10015000AE0FBF2FB11D5D968C91928D9F5F9F73E7
:10016000928F90E008958FEF9FEF0895FC01918D9D
:10017000828D981731F0828DE80FF11D858D90E00A
:1001800008958FEF9FEF0895FC01918D228D892FA7
:1001900090E0805C9F4F821B91098F73992708958F
:1001A00086ED94E00E94C40021E0892B09F420E050
:1001B000822F089580E090E0892B29F00E94D000E2
:1001C00081110C9400000895FC01A48DA80FB92F93
:1001D000B11DA35ABF4F2C91848D90E001968F736F
:1001E0009927848FA689B7892C93A089B1898C918E
:1001F000837080648C93938D848D981306C00288DD
:10020000F389E02D80818F7D80830895EF92FF92A6
:100210000F931F93CF93DF93EC0181E0888F9B8D29
:100220008C8D98131AC0E889F989808185FF15C0E3
:100230009FB7F894EE89FF896083E889F989808106
:100240008370806480839FBF81E090E0DF91CF91D5
:100250001F910F91FF90EF900895F62E0B8D10E0F7
:100260000F5F1F4F0F731127E02E8C8D8E110CC066
:100270000FB607FCFACFE889F989808185FFF5CFB1
:10028000CE010E94E400F1CFEB8DEC0FFD2FF11DAC
:10029000E35AFF4FF0829FB7F8940B8FEA89FB89EE
:1002A00080818062CFCFCF93DF93EC01888D88234C
:1002B000B9F0AA89BB89E889F9898C9185FD03C0C9
:1002C000808186FD0DC00FB607FCF7CF8C9185FFAE
:1002D000F2CF808185FFEDCFCE010E94E400E9CF0F
:1002E000DF91CF910895CF93C82F8A3029F46DE024
:1002F00086ED94E00E9406016C2F86ED94E00E944A
:10030000060190E080E0CF910895CF938093790526
:10031000CFB7F894282F30E0A0E8BEE30E947E0714
:1003200024E630E040E050E00E945C073093890012
:1003300020938800CFBFCF91089580917A00806488
:1003400080937A0080917A0086FDFCCF0895909189
:100350007305981731F1982F906490937C008093E7
:10036000730588EC90E025E32A95F1F700000197EA
:10037000D1F70E949D0180917800909179000E94B0
:100380009D0180917800909179000E949D0180915B
:100390007800909179000E949D0180917800909161
:1003A00079000E949D0180917800909179000895D4
:1003B0001F920F920FB60F9211242F933F938F939A
:1003C0009F93AF93BF9380918C0590918D05A091E1
:1003D0008E05B0918F0530918B0523E0230F2D37CB
:1003E00058F50196A11DB11D20938B0580938C05B6
:1003F00090938D05A0938E05B0938F05809187050E
:1004000090918805A0918905B0918A050196A11D5A
:10041000B11D8093870590938805A0938905B093BB
:100420008A05BF91AF919F918F913F912F910F902E
:100430000FBE0F901F90189526E8230F0296A11D5E
:10044000B11DD2CF1F920F920FB60F9211242F938E
:100450003F934F935F936F937F938F939F93AF934C
:10046000BF93EF93FF9386ED94E00E94E400FF9129
:10047000EF91BF91AF919F918F917F916F915F911C
:100480004F913F912F910F900FBE0F901F90189595
:100490001F920F920FB60F9211242F938F939F9359
:1004A000EF93FF93E091E604F091E7048081E091FF
:1004B000EC04F091ED0482FD1BC090818091EF046B
:1004C0008F5F8F732091F004821741F0E091EF0469
:1004D000F0E0EA52FB4F958F8093EF04FF91EF918C
:1004E0009F918F912F910F900FBE0F901F90189595
:1004F0008081F4CF1F920F920FB60F9211248F9329
:100500009F938091C6049091C70401968A3091050B
:1005100058F49093C7048093C6049F918F910F90D5
:100520000FBE0F901F9018951092C7041092C6042A
:1005300080917505882319F081E080937A0581E028
:1005400080937505EACF789484B5826084BD84B5C4
:10055000816084BD85B5826085BD85B5816085BDBE
:1005600080916E00816080936E0010928100809176
:1005700081008260809381008091810081608093FE
:100580008100809180008160809380008091B10023
:1005900084608093B1008091B00081608093B0004E
:1005A00080917A00846080937A0080917A008260E2
:1005B00080937A0080917A00816080937A008091A4
:1005C0007A00806880937A001092C100E091E6047E
:1005D000F091E70492E09083E091E204F091E3046B
:1005E0001082E091E404F091E5048FEC8083109296
:1005F000EE04E091EA04F091EB0486E08083E09160
:10060000E804F091E904808180618083E091E8044E
:10061000F091E904808188608083E091E804F091A2
:10062000E904808180688083E091E804F091E90426
:1006300080818F7D808323E731E03093D104209344
:10064000D0041092D3041092D2049093CB04109251
:10065000D5041092D40488EC94E090939305809391
:100660009205219A1092810082E8809380008FE7A2
:100670009EE390938700809386001092780580E037
:100680000E94850189E1809381001092730580E4C6
:1006900080937C0087E880937A0010927B008091A1
:1006A0007E00816080937E000E949D018091780091
:1006B000909179008091980590919905A0919A0563
:1006C000B0919B058C33934CA54ABA4509F085C07F
:1006D00010927405259A2D98109277051092760540
:1006E00086E491E00E94BB0780917405882309F499
:1006F00086C088E191E09F938F9381E791E09F937B
:100700008F930E949E07809197051F928F938BE78E
:1007100091E09F938F930E949E07809197052DB73C
:100720003EB7285F3F4F0FB6F8943EBF0FBE2DBFB8
:10073000811168C082E991E09F938F930E949E0788
:100740000F900F908AE090E00E94B4078091960588
:100750001F928F9389EF91E09F938F930E949E0742
:100760003FB7F894C9E0F0E0E0E0C09357009491FF
:10077000E3E0F0E0C09357002491E2E0F0E0C093A2
:100780005700C4913FBF1F92CF931F922F931F9288
:100790009F9382E392E09F938F930E949E078CE544
:1007A00092E09F938F930E949E078DB79EB70E96FF
:1007B0000FB6F8949EBF0FBE8DBFC77080E892E061
:1007C000C53009F451C008F046C086E892E0C43054
:1007D00009F44AC08DE391E047C081E0809374053D
:1007E0008CE393ECA5EABAE580939805909399057C
:1007F000A0939A05B0939B0510929C056BCF81E363
:1008000091E079CF80FF08C08BEB91E09F938F93AD
:100810000E949E070F900F908091970581FF08C05E
:100820008AEC91E09F938F930E949E070F900F9008
:100830008091970582FF08C08AED91E09F938F9386
:100840000E949E070F900F908091970583FF7ACFAB
:100850008AEE91E071CF8AE792E0C63029F081E715
:1008600092E0C73009F0B6CF0E94BB071F9288EC18
:100870008F931F928AE08F931F9287E08F9382E578
:100880008F9388E08F938CE892E09F938F930E94E0
:100890009E071F9281E08F931F9284E68F938EE3D1
:1008A0008F9380E88F9383E08F9388EE8F9387EB0D
:1008B00092E09F938F930E949E071F9284E18F93F3
:1008C0008CEE92E09F938F930E949E072DB73EB7C8
:1008D000285E3F4F0FB6F8943EBF0FBE2DBFC0E15C
:1008E000C12CD12C76018EE00E94A701C80ED91E22
:1008F000E11CF11CC150B9F7D0927C05C0927B0578
:1009000030E020E0C114D104E104F10441F060E0E2
:1009100070E88EE091E0A70196010E945C07309399
:100920007E0520937D05109282051092810510921C
:10093000800510927F0510928605109285058091A2
:100940009C05882309F482C0C1E0C093780581E04A
:100950000E94850182E090E0909384058093830556
:100960001F92CF9383E093E09F938F930E949E0703
:100970000F900F900F900F901092B10082E0809333
:10098000B00099EF9093B3001092B20087BB8093B0
:10099000700085E08093B100412C70E8572E7EE016
:1009A000672E77247394ECE38E2EE3EC9E2EE5EA1B
:1009B000AE2EEAE5BE2E9FB7F89480917505109291
:1009C00075059FBF8823A9F18091850590918605C3
:1009D000019690938605809385052091830530913B
:1009E00084052230310509F041C08091760590914F
:1009F000770501968931910590F59093770580935D
:100A00007605809185059091860564E670E00E94E8
:100A10004807892B71F4809179051F928F9385E7A0
:100A200093E09F938F930E949E070F900F900F90DB
:100A30000F9080E090E0892B09F4BDCF0E94D00098
:100A4000882309F4B8CF0E940000B5CF1092840526
:100A50001092830584E493E00E94BB078DCF10922F
:100A600077051092760580E283B9CBCF69E170E01B
:100A70000E944807EC01892B09F510E1C12CD12C0B
:100A800076018EE00E94A701C80ED91EE11CF11C60
:100A90001150B9F7D0927C05C0927B05C114D104E6
:100AA000E104F10439F0C301B201A70196010E94EB
:100AB0005C07E901D0937E05C0937D05C0E1C12CA0
:100AC000D12C760180E00E94A701C80ED91EE11C3E
:100AD000F11CC150B9F738E0C30ED11CE11CF11C68
:100AE00094E0F694E794D794C7949A95D1F7A70128
:100AF000960144275527A0917D05B0917E050E945F
:100B00008D079B01AC016AE056954795379527956F
:100B10006A95D1F744275527AAEDB5E10E948D07C4
:100B200028EE33E040E050E00E945C07322E232E96
:100B3000822F932FC0918305D0918405209709F4CB
:100B40004FC0C130D10509F479C010917905809169
:100B5000830590918405892B69F480917805181795
:100B600049F0181728F4811B863008F085E0810FC2
:100B70000E94850180917905181781F09091780580
:100B800089130CC01F928F932AE034E03F932F9378
:100B90000E949E070F900F900F900F900091830579
:100BA00010918405C017D10709F0DEC0809185053A
:100BB0009091860569E170E00E944807892B09F44D
:100BC00080C09FB7F89480917A0510927A059FBFF4
:100BD000882309F42ECF8DE994E00E94BB0729CF2A
:100BE0008830924570F481E08093820510928105EF
:100BF0001092800581E090E09093840580938305B6
:100C0000A4CF80917F05811115C011E01F9380E969
:100C10008F931F9284E68F932EEA33E03F932F93B6
:100C20000E949E0710937F050F900F900F900F90DA
:100C30000F900F9084E68093780587CF20918105EF
:100C40002F5F209381058830924528F4809180059C
:100C50008F5F809380052A3008F477CF80918005DC
:100C6000873040F111E01093780581E00E94850102
:100C7000809182058823B9F02FB7F894809188007D
:100C8000909189002FBF803A910569F410939C05DB
:100C90008092980590929905A0929A05B0929B0532
:100CA00082E090E0A9CF88ED93E00E94BB0784E644
:100CB0008093780510928205109284051092830526
:100CC00044CFC330D10508F452C02DEA34E03F933D
:100CD0002F93809179051F928F932F923F9280914D
:100CE0007E058F9380917D058F9380917C058F93F6
:100CF00080917B058F93DF92CF9226E234E03F9381
:100D00002F930E949E072DB73EB7225F3F4F0FB62D
:100D1000F8943EBF0FBE2DBF54CF8DEA94E09F9351
:100D20008F93809179051F928F932F923F9280919C
:100D30007E058F9380917D058F9380917C058F93A5
:100D400080917B058F93DF92CF9286E294E09F9310
:100D50008F930E949E078DB79EB70E960FB6F8949C
:100D60009EBF0FBE8DBF33C003301105B0F6F80132
:100D7000EE0FFF1FEE5EFE4F81818F9380818F9378
:100D8000809179051F928F932F923F9280917E05DB
:100D90008F9380917D058F9380917C058F938091B7
:100DA0007B058F93DF92CF9226E234E03F932F931F
:100DB0000E949E072DB73EB7225F3F4F0FB6F894B3
:100DC0003EBF0FBE2DBFC017D10709F4FACE8091E8
:100DD000830590918405019771F482E58F9388E0F3
:100DE0008F9386E494E09F938F930E949E070F90C9
:100DF0000F900F900F90809183059091840502973A
:100E000009F0DFCE1F9281E08F931F928AE08F93CB
:100E1000809180051F928F9383E694E09F938F9338
:100E20000E949E078DB79EB708960FB6F8949EBF96
:100E30000FBE8DBFC6CEE6EDF4E01382128288EEBF
:100E400093E0A0E0B0E084839583A683B78384E039
:100E500091E09183808385EC90E09587848784EC92
:100E600090E09787868780EC90E0918B808B81EC77
:100E700090E0938B828B82EC90E0958B848B86EC58
:100E800090E0978B868B118E128E138E148E0895A0
:100E9000AA1BBB1B51E107C0AA1FBB1FA617B707A0
:100EA00010F0A61BB70B881F991F5A95A9F78095BC
:100EB0009095BC01CD010895A1E21A2EAA1BBB1B7F
:100EC000FD010DC0AA1FBB1FEE1FFF1FA217B30716
:100ED000E407F50720F0A21BB30BE40BF50B661F2C
:100EE000771F881F991F1A9469F7609570958095F0
:100EF00090959B01AC01BD01CF010895A29FB00167
:100F0000B39FC001A39F700D811D1124911DB29F3D
:100F1000700D811D1124911D08950E947E07A59FCB
:100F2000900DB49F900DA49F800D911D11240895E4
:100F3000EE0FFF1F0590F491E02D0994B0E0A0E0C2
:100F4000E4EAF7E00C94740AAE014B5F5F4FFA01DC
:100F500061917191AF0180919205909193050E94EA
:100F6000E607E2E00C94900A609192057091930577
:100F70000E94D60908950F931F93CF93DF93E091BA
:100F80009205F09193052381EC0110E000E021FD32
:100F900008C00FEF1FEF14C00995892B11F00FEF58
:100FA0001FEF89916091920570919305DB0118966E
:100FB000ED91FC918111F0CF8AE00995892B49F7D9
:100FC000C801DF91CF911F910F910895ABE0B0E080
:100FD000ECEEF7E00C94640A7C013B018A01FC0111
:100FE00017821682838181FFC8C1CE0101965C0100
:100FF000F7019381F30193FD859193FF81913F0167
:10100000882309F453C1853239F493FD859193FF08
:1010100081913F01853229F4B70190E00E94D60901
:10102000E7CF912C212C312CFFE1F31538F08B32D6
:1010300011F190F4803209F1833229F137FC3CC080
:1010400020ED280F2A3050F536FE20C08AE0989E09
:10105000200D1124922E06C08D3291F0803371F74D
:10106000689430F8F30193FD859193FF81913F01DE
:101070008111DACF21C0689431F8689432F8F2CF48
:10108000689433F8EFCF689434F8ECCFEAE02E9E02
:10109000200D1124222E689435F8E4CF8E3229F4E5
:1010A00036FC04C1689436F8DDCF8C3619F46894A8
:1010B00037F8D8CF8836B1F2982F9F7D955493306A
:1010C000E0F08336A1F18337C1F1833509F063C0C5
:1010D0002801F2E04F0E511CF801C080D180692D2B
:1010E00070E036FC02C06FEF7FEFC6010E94C009BE
:1010F0004C01689437F882010AC00C5F1F4FFFE370
:10110000F98388248394912C6501E89437F833FEA1
:101110002DC0522C8114910471F5552009F468CF2B
:10112000B70180E290E00E94D6095A94F6CFF80108
:10113000808189830E5F1F4FE4CF2801F2E04F0EBC
:10114000511CF801C080D180692D70E036FC02C0CE
:101150006FEF7FEFC6010E94CB094C018201D5CF12
:10116000B70180E290E00E94D6092A94281419045D
:1011700009F0B0F7CECFF60137FC859137FE8191AB
:101180006F01B70190E00E94D60951105A94F1E026
:101190008F1A9108BFCF843619F0893609F077C0CD
:1011A000F80137FE6BC060817181828193810C5F91
:1011B0001F4FF32DFF763F2E97FF09C09095809526
:1011C000709561957F4F8F4F9F4F689437F82AE055
:1011D00030E0A5010E94060AC82ECA188C2C432CA8
:1011E00036FE0CC0E89440F8C91440F434FE05C043
:1011F00032FC03C0F32DFE7E4F2E892C44FE95C099
:10120000FE01EC0DF11D8081803309F087C0242D93
:10121000297E422E842D8870582E43FC95C040FEB6
:101220008FC09C2C821418F42C0C922C981844FE1D
:1012300091C0B70180E390E00E94D60942FE09C048
:1012400088E790E041FE02C088E590E0B7010E9487
:10125000D609C91408F48AC0CA94D12C9FEFC91AC0
:10126000D90ACA0CDB1CF60182916F01B70190E02C
:101270000E94D609AC14BD04B1F74FCF60817181D3
:10128000072E000C880B990B0E5F1F4F92CFD32CAB
:10129000E894D4F82AE030E0853739F1232D297F0E
:1012A000D22E8F3601F148F48835A9F0F7018681F6
:1012B00097812B96E2E10C94800A803749F08837B9
:1012C000A9F7D4FE02C06894D2F820E130E00DC046
:1012D0006894D4F8F6CF34FE03C0822F8660D82EEF
:1012E00020E132E002C028E030E0F801D7FE0FC074
:1012F00060817181828193810C5F1F4FA5010E94E3
:10130000060AC82ECA183D2CE89437F867CF6081CA
:10131000718190E080E00E5F1F4FF0CF42FC02C071
:10132000839478CF8394839475CF842D867809F441
:1013300071CFF6CFB70180E290E00E94D609839486
:101340008214C0F3512C73CF522C5818821408F415
:101350006ECFF8CF842D867809F47BCF8BE241FEE7
:1013600080E247FC8DE2B70190E071CFB70180E3E6
:1013700090E00E94D6099A946CCF8FEF9FEF99CF9F
:10138000FC010590615070400110D8F78095909550
:101390008E0F9F1F0895FC01615070400190011055
:1013A000D8F7809590958E0F9F1F08950F931F93E8
:1013B000CF93DF93182F092FEB018B8181FD09C09B
:1013C0001FEF0FEF812F902FDF91CF911F910F9182
:1013D000089582FF14C02E813F818C819D81281742
:1013E00039073CF4E881F981CF010196998388831C
:1013F00010838E819F8101969F838E83E3CFE88542
:10140000F985812F0995892BA1F3DACFFA01AA2753
:10141000283051F1203181F1E8946F936E7F6E5F37
:101420007F4F8F4F9F4FAF4FB1E03ED0B4E03CD0E5
:10143000670F781F891F9A1FA11D680F791F8A1FC8
:10144000911DA11D6A0F711D811D911DA11D20D02F
:1014500009F468943F912AE0269F11243019305DE9
:101460003193DEF6CF010895462F4770405D4193DA
:10147000B3E00FD0C9F7F6CF462F4F70405D4A3327
:1014800018F0495D31FD4052419302D0A9F7EACFEF
:10149000B4E0A6959795879577956795BA95C9F71E
:1014A00000976105710508959B01AC010A2E069411
:1014B0005795479537952795BA95C9F7620F731FCA
:1014C000841F951FA01D08952F923F924F925F9207
:1014D0006F927F928F929F92AF92BF92CF92DF9244
:1014E000EF92FF920F931F93CF93DF93CDB7DEB7A9
:1014F000CA1BDB0B0FB6F894DEBF0FBECDBF09943D
:101500002A88398848885F846E847D848C849B8493
:10151000AA84B984C884DF80EE80FD800C811B81A1
:10152000AA81B981CE0FD11D0FB6F894DEBF0FBED0
:0A153000CDBFED010895F894FFCF40
:10153A00000000000601660093005301C400A200E7
:10154A00B600AF04B604BD04504F5745522D4F4E56
:10155A0020286C6174636820636C65617265642914
:10156A000072657365742C2052414D207072657348
:10157A006572766564000A54544E54207374616728
:10158A00652034202D206C617463686564206C6F5B
:10159A00772D766F6C74616765206375746F666604
:1015AA0000626F6F743A2025730A004D43555352F7
:1015BA0020617420626F6F743A2030782530325877
:1015CA00200028656D707479202D20736F6D657405
:1015DA0068696E6720636C6561726564206974204E
:1015EA006265666F7265207573290020504F5246F6
:1015FA002F706F7765722D6F6E00204558545246D2
:10160A002F65787465726E616C0020424F52462FC6
:10161A0062726F776E2D6F75740020574452462F91
:10162A007761746368646F67007232206174206244
:10163A006F6F743A202020203078253032582028C5
:10164A006F707469626F6F742073746173682C2091
:10165A006966206974206D616B6573206F6E6529F8
:10166A000A0066757365733A206C6F773D3078258A
:10167A0030325820686967683D3078253032582002
:10168A006578743D3078253032580A0062726F7777
:10169A006E2D6F75742072657365742061743A20BB
:1016AA000044495341424C454400312E38205600EB
:1016BA00322E37205600342E332056007468726555
:1016CA0073686F6C64202575206D562C20766F74B4
:1016DA0065202575206F66202575206F7665722036
:1016EA002575206D730A0070776D2070696E203938
:1016FA003A20257520487A2C202575207374657048
:10170A00732C206E6F726D616C20257525252C2037
:10171A00666C6F6F7220257525250A0073616D70DE
:10172A006C696E67206576657279202575206D7300
:10173A000A0A002A2A20424F4F544544204C415459
:10174A0043484544202D2070776D2068656C6420DD
:10175A00617420257525252E20506F7765722063C8
:10176A0079636C6520746F20636C6561722E202A20
:10177A002A0A0A002072617720202062675F737547
:10178A006D202020617663635F6D7620202076626B
:10179A0061745F6D7620202064757479202020732F
:1017AA0074617465004C415443484544202D2070AF
:1017BA00776D20257525252C206E6F742073616D39
:1017CA00706C696E672E20506F776572206379633B
:1017DA006C6520746F20636C6561722E0A0020208C
:1017EA002D3E206865616C7468792C2072616D7079
:1017FA00696E6720746F2025752525206F766572BE
:10180A00202575206D730A0020202A2A2050574D62
:10181A0020444944204E4F542052454143482046D3
:10182A004C4F4F52202D206C61746368206E6F7488
:10183A002061726D6564202A2A0020202D3E2072C4
:10184A00616D7020636F6D706C65746520617420C2
:10185A00257525250A002534752020253675202072
:10186A002538752020253875202025347525252012
:10187A00202025730A0020202D3E2062656C6F7798
:10188A00202575206D562C20766572696679696EF9
:10189A00670A0020202A2A204C4154434845443AEA
:1018AA00202575206F662025752073616D706C6523
:1018BA0073206C6F772E2050574D2068656C64201A
:1018CA00617420257525252E202A2A0A0020202A1F
:1018DA002A204F56455252554E202A2A003F004E82
:1018EA004F524D414C00564552494659004C4154BD
:0618FA00434845440000D4
:00000001FF
