:100000000C9435000C9464000C9464000C9464000F
:100010000C9464000C9464000C9464000C947A02B8
:100020000C9464000C9464000C9464000C946400C0
:100030000C9464000C9464000C9464000C946400B0
:100040000C94D8010C9464000C9448020C94220285
:100050000C9464000C9464000C9464000C94640090
:100060000C9464000C946400680711241FBECFEF49
:10007000D8E0DEBFCDBF822D94B79093A5058093C5
:10008000A40514BE25E0A4EDB4E001C01D92A43A7D
:10009000B207E1F714E0A0E0B1E0E4EDF5E102C061
:1000A00005900D92A43DB107D9F710E0C5E3D0E06B
:1000B00004C02197FE010E94E507C433D107C9F7A8
:1000C0000E94A3020C94E80A0C940000AF92BF9225
:1000D000CF92DF92EF92FF920F931F93CF93DF9314
:1000E0006C017B018B01040F151FEB015E01AE1843
:1000F000BF08C017D10759F06991D601ED91FC9165
:100100000190F081E02DC6010995892B79F7C50191
:10011000DF91CF911F910F91FF90EF90DF90CF90E3
:10012000BF90AF900895FC01538D448D252F30E092
:10013000842F90E0821B930B541710F0CF960895F4
:1001400001970895FC01918D828D981761F0A28D21
:10015000AE0FBF2FB11D5D968C91928D9F5F9F73E7
:10016000928F90E008958FEF9FEF0895FC01918D9D
:10017000828D981731F0828DE80FF11D858D90E00A
:1001800008958FEF9FEF0895FC01918D228D892FA7
:1001900090E0805C9F4F821B91098F73992708958F
:1001A00084EE94E00E94C40021E0892B09F420E051
:1001B000822F089580E090E0892B29F00E94D000E2
:1001C00081110C9400000895FC01A48DA80FB92F93
:1001D000B11DA35ABF4F2C91848D90E001968F736F
:1001E0009927848FA689B7892C93A089B1898C918E
:1001F000837080648C93938D848D981306C00288DD
:10020000F389E02D80818F7D80830895EF92FF92A6
:100210000F931F93CF93DF93EC0181E0888F9B8D29
:100220008C8D98131AC0E889F989808185FF15C0E3
:100230009FB7F894EE89FF896083E889F989808106
:100240008370806480839FBF81E090E0DF91CF91D5
:100250001F910F91FF90EF900895F62E0B8D10E0F7
:100260000F5F1F4F0F731127E02E8C8D8E110CC066
:100270000FB607FCFACFE889F989808185FFF5CFB1
:10028000CE010E94E400F1CFEB8DEC0FFD2FF11DAC
:10029000E35AFF4FF0829FB7F8940B8FEA89FB89EE
:1002A00080818062CFCFCF93DF93EC01888D88234C
:1002B000B9F0AA89BB89E889F9898C9185FD03C0C9
:1002C000808186FD0DC00FB607FCF7CF8C9185FFAE
:1002D000F2CF808185FFEDCFCE010E94E400E9CF0F
:1002E000DF91CF910895CF93C82F8A3029F46DE024
:1002F00084EE94E00E9406016C2F84EE94E00E944C
:10030000060190E080E0CF910895CF938093870518
:10031000CFB7F894282F30E0A0E8BEE30E94CB07C7
:1003200024E630E040E050E00E94A90730938900C5
:1003300020938800CFBFCF91089580917A00806488
:1003400080937A0080917A0086FDFCCF0895909189
:100350008105981731F1982F906490937C008093D9
:10036000810588EC90E025E32A95F1F700000197DC
:10037000D1F70E949D0180917800909179000E94B0
:100380009D0180917800909179000E949D0180915B
:100390007800909179000E949D0180917800909161
:1003A00079000E949D0180917800909179000895D4
:1003B0001F920F920FB60F9211242F933F938F939A
:1003C0009F93AF93BF9380919A0590919B05A091C5
:1003D0009C05B0919D053091990523E0230F2D37A1
:1003E00058F50196A11DB11D2093990580939A059A
:1003F00090939B05A0939C05B0939D0580919505D6
:1004000090919605A0919705B09198050196A11D30
:10041000B11D8093950590939605A0939705B09391
:100420009805BF91AF919F918F913F912F910F9020
:100430000FBE0F901F90189526E8230F0296A11D5E
:10044000B11DD2CF1F920F920FB60F9211242F938E
:100450003F934F935F936F937F938F939F93AF934C
:10046000BF93EF93FF9384EE94E00E94E400FF912A
:10047000EF91BF91AF919F918F917F916F915F911C
:100480004F913F912F910F900FBE0F901F90189595
:100490001F920F920FB60F9211242F938F939F9359
:1004A000EF93FF93E091F404F091F5048081E091E3
:1004B000FA04F091FB0482FD1BC090818091FD0441
:1004C0008F5F8F732091FE04821741F0E091FD044D
:1004D000F0E0EC51FB4F958F8093FD04FF91EF917D
:1004E0009F918F912F910F900FBE0F901F90189595
:1004F0008081F4CF1F920F920FB60F9211248F9329
:100500009F938091D4049091D50401968A309105EF
:1005100058F49093D5048093D4049F918F910F90B9
:100520000FBE0F901F9018951092D5041092D4040E
:1005300080918305882319F081E08093880581E00C
:1005400080938305EACF789484B5826084BD84B5B6
:10055000816084BD85B5826085BD85B5816085BDBE
:1005600080916E00816080936E0010928100809176
:1005700081008260809381008091810081608093FE
:100580008100809180008160809380008091B10023
:1005900084608093B1008091B00081608093B0004E
:1005A00080917A00846080937A0080917A008260E2
:1005B00080937A0080917A00816080937A008091A4
:1005C0007A00806880937A001092C100E091F40470
:1005D000F091F50492E09083E091F004F091F10441
:1005E0001082E091F204F091F3048FEC808310927A
:1005F000FC04E091F804F091F90486E08083E09136
:10060000F604F091F704808180618083E091F60424
:10061000F091F704808188608083E091F604F09186
:10062000F704808180688083E091F604F091F704FC
:1006300080818F7D808323E731E03093DF04209336
:10064000DE041092E1041092E0049093D904109219
:10065000E3041092E20486ED94E09093A105809368
:10066000A005219A1092810082E8809380008FE794
:100670009EE390938700809386001092860580E029
:100680000E94850189E1809381001092810580E4B8
:1006900080937C0087E880937A0010927B008091A1
:1006A0007E00816080937E000E949D018091780091
:1006B000909179008091A6059091A705A091A80539
:1006C000B091A9058C33934CA54ABA4509F085C071
:1006D00010928205259A2D98109285051092840516
:1006E00086E491E00E94080880918205882309F43D
:1006F00086C088E191E09F938F9381E791E09F937B
:100700008F930E94EB078091A5051F928F938BE733
:1007100091E09F938F930E94EB078091A5056DB7A1
:100720007EB7685F7F4F0FB6F8947EBF0FBE6DBF78
:10073000811168C082E991E09F938F930E94EB073B
:100740000F900F908AE090E00E9401088091A4052C
:100750001F928F9389EF91E09F938F930E94EB07F5
:100760003FB7F894C9E0F0E0E0E0C09357009491FF
:10077000E3E0F0E0C09357002491E2E0F0E0C093A2
:100780005700C4913FBF1F92CF931F922F931F9288
:100790009F9382E392E09F938F930E94EB078CE5F7
:1007A00092E09F938F930E94EB078DB79EB70E96B2
:1007B0000FB6F8949EBF0FBE8DBFC77080E892E061
:1007C000C53009F451C008F046C086E892E0C43054
:1007D00009F44AC08DE391E047C081E0809382052F
:1007E0008CE393ECA5EABAE58093A6059093A70560
:1007F000A093A805B093A9051092AA056BCF81E339
:1008000091E079CF80FF08C08BEB91E09F938F93AD
:100810000E94EB070F900F908091A50581FF08C003
:100820008AEC91E09F938F930E94EB070F900F90BB
:100830008091A50582FF08C08AED91E09F938F9378
:100840000E94EB070F900F908091A50583FF7ACF50
:100850008AEE91E071CF8AE792E0C63029F081E715
:1008600092E0C73009F0B6CF0E9408081F9288ECCA
:100870008F931F928AE08F931F9287E08F9382E578
:100880008F9388E08F938CE892E09F938F930E94E0
:10089000EB071F9281E08F931F9284E68F938EE384
:1008A0008F9380E88F9383E08F9388EE8F9387EB0D
:1008B00092E09F938F930E94EB071F9284E18F93A6
:1008C0008CEE92E09F938F930E94EB07ADB7BEB77B
:1008D00058960FB6F894BEBF0FBEADBFC0E1C12C95
:1008E000D12C76018EE00E94A701C80ED91EE11C12
:1008F000F11CC150B9F7D0928A05C092890530E049
:1009000020E0C114D104E104F10441F060E070E89A
:100910008EE091E0A70196010E94A90730938C0513
:1009200020938B051092900510928F0510928E05E2
:1009300010928D0510929405109293058091AA054E
:10094000882309F477C0C1E0C093860581E00E9446
:10095000850182E090E090939205809391051F922B
:10096000CF9383E093E09F938F930E94EB070F90C8
:100970000F900F900F901092B10082E08093B00022
:1009800099EF9093B3001092B20087BB80937000F0
:1009900085E08093B10070E3272E74E0372E9FB777
:1009A000F89480918305109283059FBF8823A9F155
:1009B000809193059091940501969093940580936E
:1009C000930520919105309192052230310509F06F
:1009D00041C08091840590918505019689319105EA
:1009E00090F590938505809384058091930590916F
:1009F000940564E670E00E949507892B71F480915C
:100A000087051F928F938FE793E09F938F930E94A8
:100A1000EB070F900F900F900F9080E090E0892BE4
:100A200009F4BDCF0E94D000882309F4B4CF0E94FE
:100A30000000B1CF109292051092910584E493E0EA
:100A40000E94080898CF109285051092840580E2D4
:100A500083B9CBCF69E170E00E949507EC01892B47
:100A600019F510E1C12CD12C76018EE00E94A7016E
:100A7000C80ED91EE11CF11C1150B9F7D0928A059D
:100A8000C0928905C114D104E104F10449F060E089
:100A900070E88EE091E0A70196010E94A907E901A4
:100AA000D0938C05C0938B05C0E1C12CD12C76016D
:100AB00080E00E94A701C80ED91EE11CF11CC150A4
:100AC000B9F7B8E0CB0ED11CE11CF11C94E0F69410
:100AD000E794D794C7949A95D1F7A7019601442734
:100AE0005527A0918B05B0918C050E94DA079B01D8
:100AF000AC016AE056954795379527956A95D1F7E9
:100B000044275527AAEDB5E10E94DA0728EE33E025
:100B100040E050E00E94A907290120918705E201E9
:100B200081E038EE431633E0530608F442C05A0120
:100B30004201AA24BB2430E0A8EEB0E80E94CB0713
:100B400024E630E040E050E00E94A907A8EEB3E0C0
:100B50000E94DA07A50194010E94A9072E5B3F4F6E
:100B60004F4F5F4FA2E2B2E00E94DA0728EE33E077
:100B700040E050E00E94A907213B64E036074105B0
:100B8000510520F020EB34E040E050E0820E931E4F
:100B9000A41EB51E8114910471E0A706B10408F0EB
:100BA0005FC0E40181E098E0891692E5990608F0BB
:100BB00080E000919105109192050115110509F44D
:100BC00052C00130110509F47CC0B09087058091B6
:100BD000910590919205892B69F480918605B8164C
:100BE00049F0B81628F48B19863008F085E08B0D93
:100BF0000E94850180918705B81681F09091860545
:100C000089130CC01F928F9384E194E09F938F937C
:100C10000E94EB070F900F900F900F90A0909105FE
:100C2000B09092050A151B0509F096C080919305B6
:100C30009091940569E170E00E949507892B09F471
:100C4000D5C09FB7F89480918805109288059FBF02
:100C5000882309F4E2CE8CEA94E00E940808DDCEF5
:100C6000CFEFDFEFA5CF882371F081E0809390056F
:100C700010928F0510928E05A1E0B0E0B09392051E
:100C8000A0939105A2CF80918D05811116C0BB2440
:100C9000B394BF9280E98F931F9284E68F9328EBE1
:100CA00033E03F932F930E94EB07B0928D050F9096
:100CB0000F900F900F900F900F9084E68093860511
:100CC00084CF90918F059F5F90938F05882329F0A3
:100CD00080918E058F5F80938E059A3008F475CFD2
:100CE00080918E05873088F1BB24B394B09286053D
:100CF00081E00E948501809190058823F9F02FB74B
:100D0000F89480918800909189002FBF803A9105D6
:100D1000A9F4B092AA056CE373EC85EA9AE56093B6
:100D2000A6057093A7058093A8059093A90582E076
:100D300090E0909392058093910547CF82EE93E0E7
:100D40000E94080884E68093860510929005109210
:100D500092051092910539CF73E0A716B10408F4FB
:100D600052C08CEB94E09F938F93809187051F92E4
:100D70008F93DF93CF935F924F9280918C058F93E7
:100D800080918B058F9380918A058F93809189053F
:100D90008F93DF92CF923F922F920E94EB076DB715
:100DA0007EB7605F7F4F0FB6F8947EBF0FBE6DBFFA
:100DB0005AC0ACEBB4E0BF93AF931F928F93DF9315
:100DC000CF935F924F929F932F933F934F93DF92D6
:100DD000CF923F922F920E94EB078DB79EB740961D
:100DE0000FB6F8949EBF0FBE8DBF2BCF40918905E3
:100DF00030918A0520918B0590918C058091870513
:100E000003301105B0F6F501EE0FFF1FEE5EFE4F49
:100E100081818F9380818F93809187051F928F931B
:100E2000DF93CF935F924F9280918C058F93809147
:100E30008B058F9380918A058F93809189058F937D
:100E4000DF92CF923F922F920E94EB076DB77EB751
:100E5000605F7F4F0FB6F8947EBF0FBE6DBF0A155F
:100E60001B0509F4EECE80919105909192050197B2
:100E700071F482E58F9388E08F9385E594E09F93EA
:100E80008F930E94EB070F900F900F900F9080911F
:100E9000910590919205029709F0D3CE1F9281E0BF
:100EA0008F931F928AE08F9380918E051F928F936C
:100EB00022E734E03F932F930E94EB076DB77EB794
:100EC000685F7F4F0FB6F8947EBF0FBE6DBFB9CE7F
:100ED000E4EEF4E01382128288EE93E0A0E0B0E04A
:100EE00084839583A683B78384E091E09183808394
:100EF00085EC90E09587848784EC90E097878687DF
:100F000080EC90E0918B808B81EC90E0938B828BD6
:100F100082EC90E0958B848B86EC90E0978B868BAF
:100F2000118E128E138E148E0895AA1BBB1B51E1D5
:100F300007C0AA1FBB1FA617B70710F0A61BB70B49
:100F4000881F991F5A95A9F780959095BC01CD01EE
:100F50000895A1E21A2EAA1BBB1BFD010DC0AA1FFA
:100F6000BB1FEE1FFF1FA217B307E407F50720F012
:100F7000A21BB30BE40BF50B661F771F881F991F8D
:100F80001A9469F760957095809590959B01AC01D6
:100F9000BD01CF010895A29FB001B39FC001A39FDF
:100FA000700D811D1124911DB29F700D811D1124A2
:100FB000911D08950E94CB07A59F900DB49F900DA1
:100FC000A49F800D911D11240895EE0FFF1F059021
:100FD000F491E02D0994B0E0A0E0E1EFF7E00C948B
:100FE000C10AAE014B5F5F4FFA0161917191AF0190
:100FF0008091A0059091A1050E943308E2E00C9435
:10100000DD0A6091A0057091A1050E94230A089550
:101010000F931F93CF93DF93E091A005F091A1056B
:101020002381EC0110E000E021FD08C00FEF1FEF6D
:1010300014C00995892B11F00FEF1FEF8991609172
:10104000A0057091A105DB011896ED91FC9181112D
:10105000F0CF8AE00995892B49F7C801DF91CF913C
:101060001F910F910895ABE0B0E0E9E3F8E00C9434
:10107000B10A7C013B018A01FC011782168283813F
:1010800081FFC8C1CE0101965C01F7019381F30194
:1010900093FD859193FF81913F01882309F453C10A
:1010A000853239F493FD859193FF81913F0185321B
:1010B00029F4B70190E00E94230AE7CF912C212C5C
:1010C000312CFFE1F31538F08B3211F190F48032BE
:1010D00009F1833229F137FC3CC020ED280F2A307A
:1010E00050F536FE20C08AE0989E200D1124922EE5
:1010F00006C08D3291F0803371F7689430F8F301B7
:1011000093FD859193FF81913F018111DACF21C039
:10111000689431F8689432F8F2CF689433F8EFCFDE
:10112000689434F8ECCFEAE02E9E200D1124222E94
:10113000689435F8E4CF8E3229F436FC04C1689403
:1011400036F8DDCF8C3619F4689437F8D8CF883666
:10115000B1F2982F9F7D95549330E0F08336A1F142
:101160008337C1F1833509F063C02801F2E04F0EE7
:10117000511CF801C080D180692D70E036FC02C09E
:101180006FEF7FEFC6010E940D0A4C01689437F89B
:1011900082010AC00C5F1F4FFFE3F9838824839408
:1011A000912C6501E89437F833FE2DC0522C811440
:1011B000910471F5552009F468CFB70180E290E001
:1011C0000E94230A5A94F6CFF801808189830E5F2A
:1011D0001F4FE4CF2801F2E04F0E511CF801C080F0
:1011E000D180692D70E036FC02C06FEF7FEFC60141
:1011F0000E94180A4C018201D5CFB70180E290E02D
:101200000E94230A2A942814190409F0B0F7CECFBB
:10121000F60137FC859137FE81916F01B70190E0AF
:101220000E94230A51105A94F1E08F1A9108BFCFFF
:10123000843619F0893609F077C0F80137FE6BC0A3
:1012400060817181828193810C5F1F4FF32DFF7646
:101250003F2E97FF09C090958095709561957F4FBF
:101260008F4F9F4F689437F82AE030E0A5010E9425
:10127000530AC82ECA188C2C432C36FE0CC0E89496
:1012800040F8C91440F434FE05C032FC03C0F32D0D
:10129000FE7E4F2E892C44FE95C0FE01EC0DF11D03
:1012A0008081803309F087C0242D297E422E842D31
:1012B0008870582E43FC95C040FE8FC09C2C821431
:1012C00018F42C0C922C981844FE91C0B70180E3BE
:1012D00090E00E94230A42FE09C088E790E041FEA8
:1012E00002C088E590E0B7010E94230AC91408F4FF
:1012F0008AC0CA94D12C9FEFC91AD90ACA0CDB1C28
:10130000F60182916F01B70190E00E94230AAC14AC
:10131000BD04B1F74FCF60817181072E000C880B9F
:10132000990B0E5F1F4F92CFD32CE894D4F82AE08C
:1013300030E0853739F1232D297FD22E8F3601F108
:1013400048F48835A9F0F701868197812B96E2E170
:101350000C94CD0A803749F08837A9F7D4FE02C033
:101360006894D2F820E130E00DC06894D4F8F6CF4C
:1013700034FE03C0822F8660D82E20E132E002C006
:1013800028E030E0F801D7FE0FC0608171818281D2
:1013900093810C5F1F4FA5010E94530AC82ECA18E3
:1013A0003D2CE89437F867CF6081718190E080E050
:1013B0000E5F1F4FF0CF42FC02C0839478CF83941E
:1013C000839475CF842D867809F471CFF6CFB70159
:1013D00080E290E00E94230A83948214C0F3512C8F
:1013E00073CF522C5818821408F46ECFF8CF842D86
:1013F000867809F47BCF8BE241FE80E247FC8DE2E8
:10140000B70190E071CFB70180E390E00E94230A1A
:101410009A946CCF8FEF9FEF99CFFC0105906150AC
:1014200070400110D8F7809590958E0F9F1F0895FA
:10143000FC016150704001900110D8F780959095A3
:101440008E0F9F1F08950F931F93CF93DF93182F35
:10145000092FEB018B8181FD09C01FEF0FEF812F59
:10146000902FDF91CF911F910F91089582FF14C0AB
:101470002E813F818C819D81281739073CF4E881BA
:10148000F981CF0101969983888310838E819F8192
:1014900001969F838E83E3CFE885F985812F099597
:1014A000892BA1F3DACFFA01AA27283051F1203194
:1014B00081F1E8946F936E7F6E5F7F4F8F4F9F4FE8
:1014C000AF4FB1E03ED0B4E03CD0670F781F891F2A
:1014D0009A1FA11D680F791F8A1F911DA11D6A0FF8
:1014E000711D811D911DA11D20D009F468943F91AB
:1014F0002AE0269F11243019305D3193DEF6CF01AA
:101500000895462F4770405D4193B3E00FD0C9F76F
:10151000F6CF462F4F70405D4A3318F0495D31FDDC
:101520004052419302D0A9F7EACFB4E0A69597952F
:10153000879577956795BA95C9F700976105710505
:1015400008959B01AC010A2E06945795479537954F
:101550002795BA95C9F7620F731F841F951FA01DA9
:1015600008952F923F924F925F926F927F928F9247
:101570009F92AF92BF92CF92DF92EF92FF920F9322
:101580001F93CF93DF93CDB7DEB7CA1BDB0B0FB62C
:10159000F894DEBF0FBECDBF09942A8839884888E9
:1015A0005F846E847D848C849B84AA84B984C8847F
:1015B000DF80EE80FD800C811B81AA81B981CE0F76
:1015C000D11D0FB6F894DEBF0FBECDBFED0108955B
:0415D000F894FFCFBD
:1015D400000000000601660093005301C400A2004D
:1015E400B600BE04C504CC04504F5745522D4F4E8F
:1015F40020286C6174636820636C6561726564297A
:101604000072657365742C2052414D2070726573AD
:101614006572766564000A54544E5420737461678D
:10162400652034202D206C617463686564206C6FC0
:10163400772D766F6C74616765206375746F666669
:1016440000626F6F743A2025730A004D435553525C
:1016540020617420626F6F743A20307825303258DC
:10166400200028656D707479202D20736F6D65746A
:1016740068696E6720636C656172656420697420B3
:101684006265666F7265207573290020504F52465B
:101694002F706F7765722D6F6E0020455854524637
:1016A4002F65787465726E616C0020424F52462F2C
:1016B40062726F776E2D6F75740020574452462FF7
:1016C4007761746368646F670072322061742062AA
:1016D4006F6F743A2020202030782530325820282B
:1016E4006F707469626F6F742073746173682C20F7
:1016F4006966206974206D616B6573206F6E65295E
:101704000A0066757365733A206C6F773D307825EF
:1017140030325820686967683D3078253032582067
:101724006578743D3078253032580A0062726F77DC
:101734006E2D6F75742072657365742061743A2020
:101744000044495341424C454400312E3820560050
:10175400322E37205600342E3320560074687265BA
:1017640073686F6C64202575206D562C20766F7419
:1017740065202575206F66202575206F766572209B
:101784002575206D730A0070776D2070696E20399D
:101794003A20257520487A2C2025752073746570AD
:1017A400732C206E6F726D616C20257525252C209D
:1017B400666C6F6F7220257525250A0073616D7044
:1017C4006C696E67206576657279202575206D7366
:1017D4000A0A002A2A20424F4F544544204C4154BF
:1017E40043484544202D2070776D2068656C642043
:1017F400617420257525252E20506F77657220632E
:1018040079636C6520746F20636C6561722E202A85
:101814002A0A0A002072617720202062675F7375AC
:101824006D202020617663635F6D762020206469DB
:101834007669646572202020766261745F6D76201B
:101844002020647574792020207374617465004CC1
:10185400415443484544202D2070776D202575253B
:10186400252C206E6F742073616D706C696E672E09
:1018740020506F776572206379636C6520746F20E4
:10188400636C6561722E0A0020202D3E206865611C
:101894006C7468792C2072616D70696E6720746F46
:1018A4002025752525206F766572202575206D739A
:1018B4000A0020202A2A2050574D20444944204E13
:1018C4004F5420524541434820464C4F4F52202DFF
:1018D400206C61746368206E6F742061726D65643E
:1018E400202A2A0020202D3E2072616D7020636F13
:1018F4006D706C65746520617420257525250A005A
:10190400253475202025367520202538752020257E
:10191400387520202538752020253475252520206C
:101924002025730A0020202D3E2062656C6F7720ED
:101934002575206D562C20766572696679696E6707
:101944000A0020202A2A204C4154434845443A2086
:101954002575206F662025752073616D706C657325
:10196400206C6F772E2050574D2068656C64206181
:101974007420257525252E202A2A0A0020202A2AAB
:10198400204F56455252554E202A2A003F004E4FB2
:10199400524D414C00564552494659004C4154431E
:0419A400484544006E
:00000001FF
